:100000000C948C070C94B5070C94B5070C94B507A9
:100010000C94B5070C94B5070C94D13D0C94B5071E
:100020000C94B5070C94B5070C94B5070C944E2EA0
:100030000C94B5070C94B5070C94B5070C94B50750
:100040000C94B5070C94B5070C94AC3D0C947F3D13
:100050000C94B5070C94B5070C94B5070C94B50730
:100060000C94B5070C94B5070400000000040400CC
:100070000000000400000000000000040000000078
:10008000000400020000040004000004070404004F
:10009000000404040000020200000002040700043F
:1000A000070704000404000004000202040404041E
:1000B0000400000400040404040404040004000216
:1000C0000304000404000400040000040004000011
:1000D00000000000000001020102CC00A92D020076
:1000E00001000000292A030001000000352A040055
:1000F00001000000382A0500010000007D2A0601E9
:1001000000019B0318120700010000008E12080175
:100110000001CB0072120900010000004A2D0A0202
:1001200001019603682D0B030103C8004B2D0C023F
:100130000102C6007D2D0D020002CC001D320E0210
:100140000002820322320F030003C800953210021E
:100150000002C600071811050005C100BD171202F4
:1001600000028203172913010001CB00F9271402B2
:100170000002C600E2101502000282036F1016048E
:100180000004BD000A1117050005B8008C10180105
:100190000001CB00C52719080008B00051281A0338
:1001A0000003AD0037281B02000282031E1F1C0241
:1001B0000002C600FC1D1D0400047003801F1E0108
:1001C0000001CB00291E1F080008A500AC1D20025D
:1001D0000002C6003B1E210400038403C512220353
:1001E00000028703BA14230300028703CA142404FD
:1001F00000047E03221325010001CB00BD1226035B
:100200000003A200EF12270500039F00AB2A280479
:1002100000039C00832B290300028703902A2A04F1
:1002200000047E03E02B2B010001CB007B2B2C0371
:100230000003990066212D0300038903FC1C2E0690
:1002400000069300761D2F020002820393253005DD
:1002500000058E00DE203104000490033A213202B2
:10026000000282031B21330400038B002B2534057D
:1002700000058600CC2535010001CB007530360421
:10028000000374032031370500058100642438041D
:1002900000047E03253039030003A20057303A03DF
:1002A000000287036D313B0300028703FE313C06E9
:1002B00000067B008C313D0300028703FD383E03BE
:1002C0000002870319393F080008730035394006DA
:1002D00000067B00A339410500056E00B6384201D7
:1002E0000001CB008A1543030003C800D91A440259
:1002F0000002820338194506000668001F154603F0
:100300000003AD00611547010001CB00E63548034D
:100310000003C8004437490200028203C7354A037C
:10032000000287031B224B04000470032A204C03A5
:100330000003AD00D31F4D010001CB0099214E03F6
:100340000003C80008234F02000282037A215000F4
:1003500001000000733D5100050000001011121350
:100360001415222304000002040002040204000702
:100370000400000404020704000002040402040054
:100380000000040404040704070400020404040039
:10039000040400040401070400040200000000003B
:1003A0000000060002026D400374036C1F07640323
:1003B0006B400374036A0B026B036940036D0368AF
:1003C00040037403671C07770366140470036540D9
:1003D000037403641C0777036317047E03620A0235
:1003E0008203614002870360400384035F40028709
:1003F000035E400287035D100389035C11048C03D4
:100400005B110490035A0D029403590B019B03588E
:10041000400196035712049703560B019B03551096
:10042000029C035415039E03004002A103530E02D5
:10043000A303520901A50351060000000000230098
:10044000260029002C001E47004400450080011DA5
:100450004800440045002001098800800081008098
:10046000000A8A008000810020000BB300B000B1B8
:100470000080031BB400B000B100200378DAB55946
:10048000796F1B3716FF2AAC8060B785624873E826
:10049000F0227FD8B2BB085A276E1C370516C560FC
:1004A0003C434984E7EA70C6C716FEEEFB1E1FAF49
:1004B00019C969B08B0D1068483E928FEFF8BDC323
:1004C0007F4EEE7A51E4C9036FA5A82B39399DEC14
:1004D000B2EC94FDFD9F9BCDF72C3E894E66EC4E11
:1004E000547D270A89B31F6ED9B91E7ECF829360CF
:1004F0007112CCE68BD93C8827D3495697655AE5CB
:1005000070C89F93B428EA2CED78528B5CB2ACEEA5
:10051000ABEEDD9B6C72BA9AC28D5D07572569768A
:10052000CF6015A6BDF568E911E4B921686AA97E16
:1005300044F5EE4DCF9ABE2892BEA10D6BB7E18F68
:100540009EB7CFF64C60E01EA95B2EBBA413D9BDAD
:10055000A451D7A6952C4597985B99A8E0FDFA7E03
:1005600060302B78DA2672DF7779FD584D4E037CA8
:100570005AB5153BE0E8A908A3D85C211B91D0E748
:10058000E474193AAA2A2DEA5D222ACBBD627B7255
:100590001ABA9334CB8682868993433CB3A46A9279
:1005A000B7C3C3063288979638173BD1A54552F793
:1005B000DD68C3435AF41CC739DFA67DD12576A276
:1005C0004C9F92BC6FD30E2C40F13977E771D06706
:1005D000573783B3B2C1E5C1C212EFF3285AAE66F2
:1005E00086B89589BE9B9B8F3CB25FB1FD5AD8AF50
:1005F000A5FDE245FA6C9536395D38E98A206346F7
:10060000E8919B2E840CF2C7639A59AC2C51D9F413
:10061000EB20B60CC2514E7F6B4B55F1BA114FBC5B
:100620001809304FBB3491E2DF20B37D0F5ED12536
:100630002838CFB024872951796CC7B13DB4792CC3
:100640008F28257B066373676895ECFBB19260E6A3
:10065000404B91133C3C777C30FA57271E78B217F9
:10066000BBBD7A61B8F2E9C14A77053F9417B36B15
:1006700049F7DC7092CDE026EB19C736EBA5A494C0
:10068000BB776F7E002808C3C1DE47D1ED410C491E
:1006900026AD1243676DB25BAE03AB9ECCDA8FCC56
:1006A0008A7BFB2D72FBF95C65C9D0545856E6C9AC
:1006B00081F5CCBC1B78D33867C261A28D3A17ADE7
:1006C000F9244050C48EAA2F24F70E0DDCC3BA3D86
:1006D0006FCB1AFCB4392A517FD913AA63AA2BB362
:1006E0003E6DAD6DB44FC98193B3CE4EA2E575A2F8
:1006F000E464610E52BA16E5E1C40AE7E7FCAE070E
:100700007BAE9BC9E9DA8CE0949DB265D2CFDC92D6
:10071000B53C05BC6D73DEE27D00BE2D81416008F5
:100720001E5BD1F1030A345A229C4F27BCE4ED8EA4
:1007300057D97382A8014CC0142148B2AF4B7E80B8
:10074000CD322D1BDF01F4D822F310BB8175875AFF
:10075000F45C2BE356EC76BCC54748F40F04A6D8EE
:100760005DAE2203F09476DC0A2888A693AD00AC37
:1007700006974E48862C6B33B298E96407DEACF8D6
:100780000421EB91A201CDD1B06F500BE087D3894A
:1007900006BE44C27D0958A0C575FC26392F8211BA
:1007A00019AAC09039752C4088084B659D8BED7354
:1007B00002BAB667B55CB914D3E10938C055ED6526
:1007C0006BDA463A1CD2E35C52700D1A332254DBCA
:1007D0007BE923210C158E818CF017D5CB25D97A96
:1007E00014B85DB2DE768F69CBFDEDE09FD627F3BE
:1007F000D47C1E3B6911D349DA96C6CF8FF0F93904
:10080000AF3A783CABB75BB85039B58D8BB06EE082
:100810005989D16A330EBD95BEC99DA62979D8F7ED
:10082000DE3531E88C4C6214D18F270DA0F260B414
:1008300041D952EF406C39B704E3E8FF5F1A7BE916
:100840008C5DA3BF1B4106B3838D7B9EDD7B39434B
:10085000687918A50C9683A6063C19DFEF85AB8551
:100860003960184D5F93CA6239A41F0B6561CF1BB5
:1008700005DE57C5BC1A6D3810B3BDF12084BD929A
:10088000EFA18F42C4125B92D13236071C03ED57A1
:10089000CEF05431D0040D20580086E49E22166B11
:1008A0007549CF8FA563F68EDACF14E6B1D9324AF7
:1008B000142CB9D53E788925C6C8647D18554E607C
:1008C0006C1C66AF9C0F7E05C01D98B0CA512009F4
:1008D0009FE94FB59F506E7C1F6C002AA4F1DF305A
:1008E000CA2581EFF08048BD402536F6CC419603FD
:1008F0009B16B4A9E24F9A0588BD160C444BF03CF8
:100900002722238FBFC898402AE0D45EF28259FE86
:10091000D6F98073FEA5A6F3E0C35B0DEDEA0020D7
:10092000714A03244033F7E00DB62CDC9663E85897
:100930000A591B4C2C6B298E653507872E341FAF47
:10094000BF23042BA084E96B71275E0FA98E879DBE
:100950007885542A354A30B601640A4C34ADE3CD6B
:10096000D78E404554B45E8AB9CC86602F20C30E22
:100970003852273603512BE4B78189B01B54AD7729
:10098000A30CD1658F780098C4CAD1757EC2C49B70
:10099000BAD5D19ABC578DAD91F0A746804AFCDC00
:1009A000606D4F1ABDC22702B0A14872CC8F3D1FA7
:1009B000885E4C1286A5EFD9C526B93AFB0D532B9C
:1009C000CC11CF6F6F92EBF71F6E10B1A0BCBE3E83
:1009D0008FA6D7E721FCC792D92E768F6A71134F65
:1009E000AF37112C6C7EFEB8F929F9F1D3E52FE869
:1009F0002E33F56F3AB9DADC0255DA957C9786C169
:100A0000AA01C2EB2F57745B80C5C6A7CBCDE5FB0F
:100A10005F2F932FEF3F5C7CFC826A0B70F2E6F253
:100A2000134C1217BC156981775DCCA6D7177338A4
:100A30000256DF9FFD9C9C9FDD5E6016170778D5F0
:100A4000CDE7B3CF37C9CDEDD5CD2FB072738917B0
:100A50002C5E30A3EA21C75355882AF475E6809F9F
:100A6000EA0D33A0019BC6F1F5F96C72FAAFD574AB
:100A7000F53BB0B9C16F707C35B8C001E45F6A70F6
:100A80008903288D57BFBF0C1C181265D54998875C
:100A90006108E74E27A98C67D13257494057F07853
:100AA000360FEE802DBD4B33A1A48C4C60E4106852
:100AB000282D24BC89C8B56A9852E196422855AFC2
:100AC00067055AE23333C9604EB0B6492B56D51D7F
:100AD000039364E8D60C9088E08729CB628F7B0172
:100AE000DF6421923560E37013E1A6D9DB4BAE22BF
:100AF000503B67DBBA65A0AC7F98B190B89AAB79F0
:100B00003525C91160EBDF3A846DA87476C0109466
:100B10000F6987D4A96693EA3ACA6F35B144523453
:100B20004CCAC2695621BC3A1A38E51533A58FDD87
:100B30000FA6B1A1960D6BD2160C83F1B6AD5B95E5
:100B4000E09A859643A0919D6ADCFC98C27B73D69F
:100B5000D54CF93316E2CA0DA96BF39EC220339D22
:100B60000DD768A16844F989A1D2BD22955BBB3934
:100B7000204356D2924328A312CB2C96F50337DCA0
:100B800030ACC2D1EFDCB2ADD96D954EB87CB0AE11
:100B900053437B7FE831000264647658F498592C03
:100BA000AE8D7707CBC1BCCE40B2BD68F4C6683EFF
:100BB000240015F48D7B93A4B2DD500C7210EF1459
:100BC0004CE7AFD227B4D395112895D2579048A7B8
:100BD0003BCEA0C68288611406475E0989D62421CF
:100BE00029CCFB026B3CD88C019669EC5286CF1F56
:100BF000386A0263EBEB1BF6699B2B63D7D4584929
:100C00005EA1F855CEC1E0ABDD16F523252D1FC042
:100C1000CA5346CF41F752BE1F8D16C0EE6901CBB5
:100C2000557F41540D8576EAE5A8A50A3975D3911B
:100C3000C2386BFD4D5BEF409825B09EE2DBB610ED
:100C40001B814B103647C7C5BED927AE1F85C68A44
:100C50009E05D7A0A8410D68C958CCDC588203E98D
:100C6000B0475114103232386FD074A120E8765A50
:100C7000097D6507C6991BF042D2A162002944D9BB
:100C80009766CE380772651A2BAAC483C394DF2AED
:100C90000CF29B9137DA91BBBA66DB54BD8E5E864F
:100CA00015ED67DFA4506440A85A49D400FAACE4BB
:100CB000813B215A4AAE2AF4DB4AF60D464C4E4E91
:100CC000AD9014FBAA5FD22EDBE7F58EA4F81D15BC
:100CD00059AAB30BB5475FDDC3C18808D430F4E629
:100CE000A55B00CB241F01C8908074E8C1108BA1C4
:100CF0008A955ABFAE0D428055570560DC031C90A3
:100D0000DE1506BAECF3A9CE653A45A07EEDA85EE5
:100D10003E651F013C214CDD6154DF62BF447E47CC
:100D2000C9836A465B1CD52DEA9C9A2012ABCE0A79
:100D300010824C2683655CC2340CC05FB51D3F9C9D
:100D40006D7EA27E95E9D8A86C0AA559A42D8613BC
:100D5000CC1E8FA40CA8423278EC7F69042677C29F
:100D60004409A2D5418F08C315C4F570BE8A631526
:100D7000FDF460A1C21F0D16B1B207182C164BF876
:100D80000E5F5E5462DF005C706AC3EB6AD5CFFA17
:100D900024826895F1514DFC16ADE76875EB6A1039
:100DA0005D3999BC8AF277FFB8BB5EF9A3DAB51555
:100DB000DB1A7F0BE135DB31517F8B91CB96C983F9
:100DC000AE0C1D79ACE65987AECF3FD8917A35305D
:100DD000532BFA3DAADBAE4A1B9741AE6C27132278
:100DE000AA6EE8A817AABE0FCE195353893B409D9F
:100DF000CFF84A752A5569FD35AEF50EFD91B8DB81
:100E0000DF066BD76C93E093B677B65ABB5ED5E03E
:100E1000E47D0DC5E7EEF00EBF1506C299BBF64F97
:100E2000620CC065B43426B1AC63D761F1486DABD8
:100E3000850CE20449B155E404C2C60995960948F7
:100E40005957FFDF64644B4BFE7FB6317077D34454
:100E5000F816C610DB8F361DFE27CEFA639CCDBC7C
:100E60004E95B603C35C9F65AA5396A1FD021D680B
:100E7000C76FD6AEB04C7341C2F4958E2B26F4B337
:100E8000E96FD2CDDCDFE1956CFE06A40B8E15DA9E
:100E90000776E737533C037C1B84C3CAF6AF0C3696
:100EA00052B97CDBA9E47A35A7CC5E3A2F937DA9B1
:100EB0007FE41FE44C91AB5547852CF502A14258C5
:100EC000CF46983B54C45118EA29909276B07030BE
:100ED000E5EDE103B0B025109AFB25ABF3EB2CB5A3
:100EE000F5F3D1F6B5875958C251AF99D1DF727A6F
:100EF0001FD062807CFDD75B28EA1E6627F3F9C904
:100F00000C6C67FD76B788D2F5320AE79397FF003D
:100F100063720ED8980A000011241FBECFEFD8E0EC
:100F2000DEBFCDBF14BE0FB6F894A89580916000C7
:100F3000886180936000109260000FBE11E0A0E015
:100F4000B1E0E4E5FDE702C005900D92AA32B107D9
:100F5000D9F722E0AAE2B1E001C01D92A739B20799
:100F6000E1F70E947B2F0C94A83E0C940000CF93D5
:100F7000DF93CDB7DEB769970FB6F894DEBF0FBE2B
:100F8000CDBF0E94682F6B017C019E012F5F3F4FF8
:100F90001901AE01475F5F4F5E874D878091260143
:100FA000882309F4F0C50E94682FC61AD70AE80AF8
:100FB000F90AF89480912601882351F08FEF8093ED
:100FC000260178940000F894809126018111F9CFD0
:100FD00078940E94682FA7019601260F371F481F9B
:100FE000591F2B8B3C8B4D8B5E8B81E080932601B0
:100FF00080914901882309F43EC0109249018FEF86
:10100000898369E27EE1C1010E9446298C01892B16
:1010100091F1D80156968C9182FFF3CF0E94682FF0
:10102000F894F80137892689422F4B7F468B7894B4
:101030009F938F937F936F931F923F9321701F9283
:101040002F9389811F928F932BEF33E03F932F9340
:101050000E94E2336DB77EB7645F7F4F0FB6F8949E
:101060007EBF0FBE6DBF69E27EE1C1010E944629CD
:101070008C01892B71F680914A018823F9F0109236
:101080004A018FEF89836BE37EE1C1010E9446290B
:10109000FC01892B99F0958D868D9813F4CFF894E7
:1010A000858D968D891709F457C678946BE37EE198
:1010B000C1010E944629FC01892B69F780914C01EE
:1010C0008823F9F010924C018FEF898307EE13E02B
:1010D0006BE171E2C1010E944629009791F0DC01A9
:1010E00058962C912F3FA1F7F894FC0126852111E9
:1010F000F1C478946BE171E2C1010E944629009726
:1011000071F780914E018823D9F110924E018FEF33
:10111000898302EE13E06CEC75E2C1010E9446295E
:10112000009771F1DC011E962C911E9723FFF3CFDF
:10113000F894FC012685277F268778949C01265EFB
:101140003F4F3F932F9350968C9186958695869529
:101150001F928F9389811F928F931F930F930E94E9
:10116000E233EDB7FEB738960FB6F894FEBF0FBE68
:10117000EDBF6CEC75E2C1010E944629009791F623
:1011800080915901882309F446C0109259018FEFCC
:10119000898308ED13E067E570E3C1010E944629E9
:1011A000FC01892BC1F1848D80FFF5CFF8949481E7
:1011B000258136814781548965897689A789B08DD3
:1011C000F18CE28CD38C848D8E7F848F7894DF9227
:1011D000EF92FF92BF93AF937F936F935F934F9381
:1011E0003F932F939F9389811F928F931F930F9308
:1011F0000E94E2332DB73EB7205F3F4F0FB6F89401
:101200003EBF0FBE2DBF67E570E3C1010E944629B6
:10121000FC01892B41F6809146018823B9F1109297
:1012200046018FEF8B87AE01455F5F4F2A01F2E0E9
:10123000DF2EAEE2EA2EB0ECFB2E68E379E1C201CC
:101240000E9446298C01892B09F1D80152968C9174
:1012500082FFF3CF80FF87C1C8010E94B53AF80131
:10126000D28A148AE982FA82910142E060E08485A0
:1012700095850E94C013C8010E94291A68E379E18C
:10128000C2010E9446298C01892BF9F68091450103
:10129000882309F450C0109245018FEF8B879E017F
:1012A000255F3F4F290161E675E1C2010E94462991
:1012B0005C01892B09F43FC0D50159968C9159974F
:1012C00080FFF1CFF894F501648075808680978067
:1012D000818D8E7F818F789458968C91813009F41E
:1012E00099C308F479C3823009F439C38330D9F63D
:1012F000CB8419821A82910142E061E0F501848970
:1013000095890E94C01309811A811027012710278F
:10131000F02FF670EF2E20E030E0B401A301C501FC
:101320000E94EC1561E675E1C2010E9446295C014C
:10133000892B09F0C1CF80915B018823B1F1109214
:101340005B018FEF8B879E01255F3F4F290152E0A4
:10135000D52E6DE2E62E78E0F72E67EC75E3C2013C
:101360000E9446298C01892B01F1D80152968C915B
:1013700082FFF3CF80FFF2C0C8010E94B53AF801A6
:10138000D28AE982FA82910142E060E08485958503
:101390000E94C013C8010E946D3667EC75E3C2015C
:1013A0000E9446298C01892B01F780914B018823EB
:1013B00009F45EC010924B018FEF8B879E01255F71
:1013C0003F4F290177247A9463ED7FE1C2010E94A7
:1013D00046298C01892B09F44BC0D80150968C9179
:1013E00082FFF2CFF894F80184809580A680B780C0
:1013F000F488108A148A789480859185A285B385B3
:10140000881A990AAA0ABB0AD801FF2091F05296BD
:101410008C91F801E80FF11D758A168A178A8D5F85
:10142000F801828B8E3208F093C0FA94D801F11043
:10143000EECF51968C91882309F432C2813009F4A1
:1014400015C3823009F434C4D80152968C9190E0CF
:101450008E970CF4B9CF6B85C8010E94042063ED10
:101460007FE1C2010E9446298C01892B09F0B5CF8A
:1014700080914D01882309F4C3C010924D018FEF74
:101480008C8730E3632E42E0742E53E2952E6AE699
:10149000C62E74E0872EE0E44E2E6AE771E2CE019C
:1014A0000C960E9446297C01892B09F4A9C0F701FA
:1014B000868982FFF2CF80FF5BC0C7010E94B53AE8
:1014C000D70156967C92569799821A821C96ED9176
:1014D000FC911D97A10162E080810E94FE16C982E5
:1014E0008A82D7011C96ED91FC911D97A10162E0C3
:1014F00080810E94FE16C9824A82D7011C96ED9116
:10150000FC911D97A10162E080810E94FE16BAE362
:10151000BB87D7011C96ED91FC911D97810121E0BD
:10152000AE01455F5F4F61E080810E947416998231
:10153000B8E0BA83D7011C96ED91FC911D97A101EB
:1015400062E080810E94FE16C7010E94C322A5CFDF
:101550006B85C8010E940420FA9468CF6B85C8018E
:101560000E948C36FACE6B85C8010E94481A65CE5F
:101570005C84F7010789D62CD01AAD2CB12C848954
:1015800095898A159B0508F4C4C2B4E7B98310E0B5
:10159000085E1F4F0E0D1F1DD7011C96ED91FC918B
:1015A0001D972D2DA10161E080810E947416F70125
:1015B0008789D80ED78A848995898A199B09958B42
:1015C000848B652DC7010E94E222D70154968D912C
:1015D0009C915597A816B90608F4FCC2F7018689B4
:1015E00081FF5BCFC7010E94B53AD70156968C9117
:1015F00056978B7F56968C93C7010E94C3224DCF7E
:10160000A89580917301882329F080E4809360007D
:101610001092730110913402112309F46DC00091EE
:101620002A0100FD12C0153008F466C0B0907401A4
:10163000CB2C8BEF8B0D8C3308F4D2C2EEE7CE1699
:1016400009F43FC4016000932A01412F50E06EE786
:1016500070E084E791E00E94793E009739F00E7FB8
:1016600000932A018457914011E0180F01FD0CC02E
:10167000902F926090932A0187E593E09F938F9338
:101680000E94E2330F900F90B12EDD24DA9480E0B7
:10169000EB2CF12C18C090E0402F50E0481B590B68
:1016A000B701680F791F6C587E4F8C589E4F0E946F
:1016B0008F3E10922601802F9FB7F894209134021C
:1016C000121761F09FBF10913402012F0B1919F707
:1016D0009FB7F894209134021213F4CF0093340290
:1016E0009FBFF1E0DF1208C087E593E09F938F93DF
:1016F0000E94E2330F900F900E94682F6B017C01D3
:101700002B893C894D895E89621B730B840B950B79
:101710008090330190903401A0903501B090360153
:101720003FEF831A930AA30AB30A8092330190927F
:101730003401A0923501B092360140902F015090B3
:1017400030016090310170903201460E571E681EC4
:10175000791E40922F0150923001609231017092B7
:1017600032016115710541E08407910508F010C24E
:101770009B01AC010E94DC3DDC01CB0181509F4FFD
:10178000AF4FBF4F892F9A2FAB2FBB2740912B0113
:1017900050912C0160912D0170912E01840F951FA5
:1017A000A61FB71F84179507A607B70718F48FEF72
:1017B0009FEFDC0180932B0190932C01A0932D01CE
:1017C000B0932E0140915301509154016091550105
:1017D000709156015C546B437B4F2F2DC416D50678
:1017E000E606270B27FDDACBBF93AF939F938F932A
:1017F0007F926F925F924F92BF92AF929F928F9221
:1018000083E294E09F938F930E94E2336DB77EB79B
:10181000625F7F4F0FB6F8947EBF0FBE6DBF8091A1
:10182000530190915401A0915501B0915601C816F1
:10183000D906EA06FB0698F480914F019091500179
:10184000A0915101B09152010196A11DB11D80934B
:101850004F0190935001A0935101B0935201C09257
:101860005301D0925401E0925501F092560110922A
:101870002B0110922C0110922D0110922E0110922A
:101880002F0110923001109231011092320110920A
:1018900033011092340110923501109236017ECB43
:1018A00082E389831A820E94682F6B017C01910177
:1018B00042E061E0F801848595850E94C0130E9492
:1018C000682FDC01CB018C199D09AE09BF0981325B
:1018D0009340A105B10508F0EFC0998197FD4AC179
:1018E000C818D908EA08FB08D80153968C918823B8
:1018F000C1F02FEF280F41E050E002C0440F551F08
:101900002A95E2F7052E000C660B770BC40ED51E48
:10191000E61EF71E04C0F694E794D794C7948A9500
:10192000D2F7BFEFCB16D104E104F10408F086C171
:101930002A8130E0220F331F892F90E0982F8827CB
:10194000990F822B932BF8012289E20FF11DC58A92
:10195000868B978B2D5FD80152962C9375CDCB84B7
:1019600081E089831A821B821C82910143E061E03D
:10197000848995890E94C01369817A818B819C81B9
:101980000E940E3EBB27A92F982F872F9C01AD01E7
:10199000442755272F87388B498B5A8B37E039835B
:1019A0001A82910142E061E0D50154968D919C919B
:1019B00055970E94C0138A81982F9C7F8F858170D4
:1019C000E92EE82A0F85188929893A89B401A301EB
:1019D000C5010E94EC1567CCCB8419821A821B8248
:1019E0001C82910144E061E0F501848995890E949F
:1019F000C01369817A818B819C810E940E3EF62FF3
:101A0000F770EF2E8B019C01B401A301C5010E9468
:101A1000EC1549CC2B852F873CE039831A821B8239
:101A20001C82910144E061E0848995890E94C01381
:101A300069817A818B819C810E940E3E6B017C01C1
:101A4000BFE0B9831A82910142E061E0F501848927
:101A500095890E94C013970186013327CF84EA80BD
:101A6000B401A301C5010E94EC151DCC8FE7898349
:101A70008EEF8A830E94682F6F87788B898B9A8B71
:101A8000910142E060E0F801848595850E94C013D1
:101A90000E94682F6B017C01DC01CB012F85388906
:101AA00049895A89821B930BA40BB50B8132934051
:101AB000A105B10508F4CFC0D80152968C91F80168
:101AC000E80FF11D758A92E0968B178A8D5FF801F9
:101AD000828BBACC318D308F7894AC01415F5F4FEF
:101AE0005F934F931F922F93FC0187891F928F93CF
:101AF00089811F928F931F930F930E94E2332DB71A
:101B00003EB7265F3F4F0FB6F8943EBF0FBE2DBFC6
:101B1000DFCAB7016E5E7F4F848595850E949D2F39
:101B20009C01ABEABAEA0E94153E96958795969578
:101B300087959C01220F331F820F931F880F991FD7
:101B4000D70155969C938E9354978A159B0508F45C
:101B500041CD57960C9119CD2D853E85E217F3079F
:101B600009F0EAC0809590E02A8530E0821793075B
:101B700009F413C1D80152968C91F801E80FF11DB8
:101B8000758A93E0A1CFCB8ADC8AED8AFE8A2DCAC2
:101B90006115710550E18507910508F008CE8B01AC
:101BA0009C0101501F4F2F4F3F4F5527432F322F7E
:101BB000212F0E94DC3DDC01CB0140912B01509193
:101BC0002C0160912D0170912E01840F951FA61F8D
:101BD000B71FE8CD10922601B1E0B0934D015DCC66
:101BE000D09075018D2D807F803109F027CD1B1598
:101BF00008F482CD8B2D90E0FC01ED58FE4F208142
:101C00002E3709F01BCDFC01EF58FE4F4F01FC01B0
:101C1000EE58FE4F9081D4018C91292F30E079014C
:101C2000F82A6DEF6B0D84E791E00E947E2FE81695
:101C3000F90609F448C1C090740100CDF801828909
:101C4000E80FF11D758A91E0968B178A8D5FD80198
:101C500052968C93F9CB80EC89831A82910142E0F1
:101C600061E0D8011C968D919C911D970E94C01334
:101C700049812A81942F9227892F82958F709827E6
:101C8000892F869586958927982F9695892780FD97
:101C900098C046FFA6C0F8018289E80FF11D758A39
:101CA00025E0268B178A8D5FD80152968C93CCCB7A
:101CB000D8011C96ED91FC911D976480B281BF877D
:101CC00023812F8B40E06B2F722F862D0E94981757
:101CD0000E94682F6B017C0130E1C30ED11CE11C16
:101CE000F11C0E94682F2F2DC616D706E806290B77
:101CF00027FFF7CFF89441E06F857F89862D0E94FA
:101D000098170E94682F6B017C017894D101EAE05A
:101D10001D92EA95E9F7F4E8F98323E22A83910119
:101D20004AE061E0D8011C968D919C911D970E941C
:101D3000C013FE01339685E09191892728E030E0B9
:101D400005C0880F2150310909F406CF87FFF9CF6C
:101D5000880FBDE18B27F6CF548965899089218949
:101D6000328943898F5F858F78946F935F934F9308
:101D70003F932F939F9389811F928F9386EF93E0D8
:101D80009F938F930E94E233EDB7FEB73A960FB65A
:101D9000F894FEBF0FBEEDBF76C9898584FF18C0D9
:101DA0008B8187FD60C0D80152968C91F801E80FB5
:101DB000F11D758AB4E0B68B178A8D5FF801828BAE
:101DC00043CBF8018289E80FF11D758A93E03CCF7F
:101DD000D80152968C91F801E80FF11D758AB5E093
:101DE000EACFC818D908EA08FB08F8013389332379
:101DF000C9F08FEF830F61E070E002C0660F771FBC
:101E00008A95E2F7CB01092E000CAA0BBB0BC80E7A
:101E1000D91EEA1EFB1E04C0F694E794D794C7941B
:101E20003A95D2F77FEFC716D104E104F10408F028
:101E30003FC0842F90E0AC01542F4427550F550F1D
:101E4000F4E02F9FC0011124842B952BD8015296CA
:101E50002C91F801E20FF11DC58A868B978B2D5FBF
:101E6000F801228BF1CAC818D908EA08FB08F1E585
:101E7000CF16F5E5DF06E104F104D0F42C8130E063
:101E8000220F331F90E0982F8827990F822B932BD6
:101E9000D80152963C91F801E30FF11D2F81269550
:101EA0002F73258B868B978B3D5FF801328BCCCAC5
:101EB000D80152968C91F801E80FF11D758A91E0D6
:101EC00003CE11E0E1CB802F8D7F80932A0180919A
:101ED0000901D81202C181E08D0D8F70806180935D
:101EE0000901B6E78B16B1E09B0609F008F4BEC005
:101EF000E6E7F1E0B98ECDB6DEB68F010F5F1F4F7A
:101F00002081222309F4E6C0E6E5F3E08491281756
:101F100008F0E0C030E0220F331F220F331F220FE2
:101F2000331FF901E153FF4FE4914DB75EB764E011
:101F3000E69F4019510911240FB6F8945EBF0FBEF9
:101F40004DBF8DB79EB70196F901EF52FF4F4491F7
:101F5000F901EE52FF4F65917491FB01640F711D01
:101F6000AC01D88ACF86988F8F8B6E177F0709F4C4
:101F700082C08016910608F46EC0A491A53028F1A5
:101F8000A73009F068C02801BFEF4B1A5B0AD801DF
:101F9000AC9082010A0D111D8016910608F45BC0F9
:101FA000B12CC12CD12CDA01AD92BD92CD92DC9234
:101FB0001397612C712C14964D925D926D927C92C8
:101FC0001797485F5F4F3196D0CF7A0184E0E80ED3
:101FD000F11C68019FEFC91AD90AD8011C91912FF1
:101FE0009F77492E512C612C712C012F00760036E1
:101FF000A9F117FF3EC086010F5F1F4FD80111974F
:102000008C91440C551C661C771C440C551C661C9A
:10201000771C440C551C661C771C440C551C661C14
:10202000771C440C551C661C771C440C551C661C04
:10203000771C440C551C661C771C982F9F77492AE7
:1020400087FDDACFDA014D925D926D927C92139703
:10205000A70131968ACF87E00E946C3DB0EE4B2AF3
:1020600055245A94652C762CC4CFB98CDD24D39496
:102070000ECB8601E7CFCF84D8888F89988D409189
:102080002701442331F0F901E053FF4FE491E0FFD1
:1020900011C02C523F4FF90125913491F901099556
:1020A0000FB6F894DEBE0FBECDBE08151905E8F6D2
:1020B000F80121CF809128011F928F93E2E3F4E091
:1020C000FF93EF930E94E2330FB6F894DEBE0FBE8B
:1020D000CDBEEBCF85E00E946C3D1B2DCDCACF93CA
:1020E000DF93EC016CE870E188810E949929FC0182
:1020F0008C819D81AE81BF81892B8A2B8B2B51F4E2
:1021000020E0F89494A59D7F922B94A77894DF917A
:10211000CF91089522E0F5CF0F931F93CF93DF93D4
:102120008C014DE250E06CE870E1FC0180810E947E
:102130006A29EC01F801848518160CF041C064E0AE
:102140006CA7F80184810E941A2E6A8F7B8F8C8F76
:1021500060E0F80180850E941A2E6D8F7E8F8F8F30
:1021600080E090E0A0E0B0EC88A399A3AAA3BBA371
:10217000F80180899189A289B3898E8B9F8BA88F62
:10218000B98F6BE070E0CE0184960E94FB298E89A6
:102190009F89A88DB98D8997A105B10548F086E979
:1021A00091E19B838A83DF91CF911F910F910895D5
:1021B0008CA580618CA7DF91CF911F910F9108951D
:1021C00060E0BECFCF93DF93EC016CE870E18881D3
:1021D0000E949929FC018C819D81AE81BF81F89478
:1021E0004685578560897189452B462B472B79F4A5
:1021F00084839583A683B783828B938BA48BB58BC3
:1022000084A5877F84A77894DF91CF91089586E194
:102210000E946C3D0F931F93CF93DF938C016CE86A
:1022200070E1DC018C910E949929EC010E94152A31
:10223000FC01D80114964D915D916D917C91179799
:10224000428353836483758318968D919C9119976B
:1022500091878087892B09F466C0D8011C968D91DF
:102260009C911D97978386831286F8948CA5282FBE
:10227000217081FB992790F9291729F091E089278E
:102280009285916092874E855F8568897989452B13
:10229000462B472B59F583FD19C08CA7118210825C
:1022A0008CA19DA1892BA9F1AEA1BFA1ED93FC93B7
:1022B000FFA3EEA3CE010E940E33CE010E94073B86
:1022C0007894DF91CF911F910F91089580914701EC
:1022D0009091480191838083F0934801E0934701F6
:1022E0007894DF91CF911F910F9108958CA711825F
:1022F00010828CA19DA1892B89F0AEA1BFA1ED9385
:10230000FC93FFA3EEA37894DF91CF911F910F91DF
:102310000895FFA3EEA3FDA3ECA3CCCFFFA3EEA3F0
:10232000FDA3ECA3CDCF87E10E946C3DCF92DF925D
:10233000EF92FF920F931F93CF93DF93EC01EA8DFF
:10234000FB8D8C8D80830E94682F0E891F89288DBC
:10235000398D6B017C01C00ED11EE21EF31E8E85ED
:102360009F85A889B9890197A109B1098E879F879F
:10237000A88BB98B80FF0EC0CC82DD82EE82FF82FB
:1023800081E0DF91CF911F910F91FF90EF90DF904F
:10239000CF900895892B8A2B8B2B59F1488559852D
:1023A0006A857B858A899B89AC89BD89840F951F45
:1023B000A61FB71F8A8B9B8BAC8BBD8B0C851D8595
:1023C000012E000C220B330B400F511F621F731F95
:1023D000488759876A877B872B2F8C159D05AE050B
:1023E0002F0927FDC9CF8C839D83AE83BF8381E0F6
:1023F000C8CFCE010E940E33811102C080E0C1CF50
:102400004C815D816E817F81972F4C155D056E0536
:102410009F0997FFB6CF4C195D096E097F094038B7
:10242000514C6F4F7F4F0CF0A7CF88E10E946C3D5D
:102430000F931F93CF93DF938C0180913F01909175
:102440004001892B09F04BC060913E0170E0623081
:1024500071052CF482E080933E0162E070E0E0912F
:102460003A01F0913B014DB75EB741505F4F4427B1
:102470005A959F01C0E0D0E0C901860F971F481709
:10248000590730F121969C01C115A4E0DA07A1F7A4
:102490008E1B9F0B0E94BF33D0934001C0933F011E
:1024A00090933D0180933C010E94B129F801808105
:1024B0009181A281B3818093410190934201A093C5
:1024C0004301B0934401DF91CF911F910F91089583
:1024D000209711F0C901DCCF80E10E946C3D8DE0B6
:1024E0000E946C3DCF932091380130913901232B0C
:1024F00091F4FC01C0818C2F90E0880F991F880F08
:10250000991F0E94BF339093390180933801C09383
:102510003701CF9108958AE00E946C3D80913F0180
:10252000909140019F938F9321E0309127013111C9
:1025300001C020E01F922F93209144012F932091FE
:1025400043012F93209142012F93209141012F931A
:1025500021E0892B09F420E01F922F9384E194E07D
:102560009F938F930E94E2338DB79EB70C960FB660
:10257000F8949EBF0FBE8DBF089546E050E06FEE09
:1025800072E1FC0180810C946A29CF92DF92FF9264
:102590000F931F93CF93DF93EC016FEE72E18C8169
:1025A0000E9499296C01F8840F2D10E0A8014D5F5D
:1025B0005F4F65EC72E188810E946A29FC01D1823B
:1025C000C082F2826C857D85A8010396DF91CF9150
:1025D0001F910F91FF90DF90CF900C94863EFF9259
:1025E0000F931F93CF93DF938C0146E050E06FEE83
:1025F00072E1FC0180810E946A29EC01F801F084FB
:1026000061E0F11060E0F80184810E941A2E6A8373
:102610007B838C838D81F11009C091E0892B8D83A0
:10262000DF91CF911F910F91FF90089599E0892B31
:102630008D83DF91CF911F910F91FF9008958BE1D2
:102640000E946C3D8F929F92AF92BF92FF920F9328
:102650001F93CF93DF93EC016FEE72E188810E94AC
:1026600099298C01F88483E08F1508F484C0F8015F
:102670008581867009F07FC08C849D84AE84BF8480
:102680008C819D81AE81BF81892B8A2B8B2B09F098
:1026900074C0EEE3F4E0A591B49111968C9182FDA3
:1026A00004C060E08AE00E941A2E60E08DE00E9483
:1026B0001A2E60E08BE00E941A2E60E08CE00E94EF
:1026C0005F1780E58CBD1DBC8114F2E19F06FAE71F
:1026D000AF06B10408F041C0811489E098068DE38B
:1026E000A806B10418F5E0E88E16E4E89E06EEE1CF
:1026F000AE06B104C0F5F0E48F16F2E49F06FFE0E9
:10270000AF06B10468F580E2881681EA980687E092
:10271000A806B10458F590E0E0E98E16E0ED9E06BB
:10272000E3E0AE06B10428F583E002C090E080E06B
:10273000CF2DCC0FCC0FC065C82BF801C08391837F
:10274000858184608583DF91CF911F910F91FF90E8
:10275000BF90AF909F908F90089591E080E0E8CF78
:1027600090E081E0E5CF91E081E0E2CF91E082E08E
:10277000DFCF82E0DDCF0E941F138EE20E946C3D0E
:102780006F927F928F929F92AF92BF92CF92DF9281
:10279000EF92FF920F931F93CF93DF934C01E62E9E
:1027A000142F6901DC0115967C901597872D867092
:1027B00009F451C071FC39C0F401908181819CBD44
:1027C0008DBDF72DF1706F2E70FCC8C0EE2009F49E
:1027D0009CC08FEF810F112351F0F60190819EBDB7
:1027E0000DB407FEFDCF9EB591938150B8F76620DA
:1027F00091F1072D069506950695402F409541705D
:10280000D40112966D917D918C91DF91CF911F91A2
:102810000F91FF90EF90DF90CF90BF90AF909F907F
:102820008F907F906F900C949817ED91FC9141855B
:1028300042706681778180850E949817B72DB170AC
:102840006B2E70FC17C0D401CD91DC91AA24AA9400
:10285000A10E111126C0DF91CF911F910F91FF9012
:10286000EF90DF90CF90BF90AF909F908F907F9030
:102870006F900895072D069506950695402F417097
:10288000F4016281738184810E949817D401CD91F3
:10289000DC91AA24AA94A10E112309F4AECF6624D8
:1028A0006394B12C8FEFA81AB80AAC0CBD1CD601EA
:1028B000FC9008E010E0898580FF35C0EE81FF8143
:1028C000888580834F2D40786B817C818D810E942B
:1028D0009817FF0CEE81FF8188858083110FE881B6
:1028E000F98190818A81892391E009F490E0192B84
:1028F000015009F7EE2011F0F6011083FFEFCF1A17
:10290000DF0AAC14BD0499F672CFF6019601210FCF
:10291000311D2E173F0709F46ACF81918EBD0DB48A
:1029200007FEFDCFF6CF4F2D40786B817C818D81E6
:102930000E949817FF0CEE81FF8188858083110F1C
:10294000E881F98190818A81892391E009F490E0FE
:10295000192BEE81FF8188858083CACF73FA4427C3
:1029600040F9F4016281738184810E949817662482
:1029700063942CCFCF93DF93EC016FEE72E18881EB
:102980000E949929288539854C8160E0DF91CF919B
:102990000C94C013FF920F931F93CF93DF93EC011E
:1029A00018816FEE72E1812F0E9499290C81F884C1
:1029B000C9852F2D3C2F402F61E00E94C013CF937B
:1029C000FF921F920F931F921F9381EF93E09F93AB
:1029D0008F930E94E2338DB79EB708960FB6F89496
:1029E0009EBF0FBE8DBFDF91CF911F910F91FF90C2
:1029F0000895FC0192899460928B1092260181E0E7
:102A000080935B0180E00895FC011092260181E033
:102A100080934501818D8160818F448155816681DC
:102A2000778180859185A285B385840F951FA61F28
:102A3000B71F84839583A683B78381E008950F939E
:102A40001F93CF93DF938C0161E675E1FC018081D8
:102A50000E949929EC010E94B53AF8018481958180
:102A6000A681B7818C839D83AE83BF83808591854A
:102A7000A285B38588879987AA87BB87892B8A2BEC
:102A80008B2B29F4DF91CF911F910F9108958485AD
:102A90009585A685B7858C879D87AE87BF878089FA
:102AA0009189A289B389888B998BAA8BBB8B8489E6
:102AB0008E8B1F8ACE01DF91CF911F910F910C94C5
:102AC000073BFF920F931F93CF93DF93EC01F884A2
:102AD00083E08F15E0F04AE150E061E675E188811E
:102AE0000E946A298C0184E095E1F8019383828336
:102AF0006FEE72E18C810E949929F801958B848B8D
:102B0000F08EDF91CF911F910F91FF90089587E292
:102B10000E946C3D8F929F92AF92BF92EF92FF9274
:102B20000F931F93CF93DF9300D0CDB7DEB77C0117
:102B300068E379E1FC0180810E9499298C018FEA88
:102B400089831A820E94682F4B015C019E012F5FCE
:102B50003F4F42E061E0F801848595850E94C013F3
:102B60000E94682FF80121892F9320892F932A81B1
:102B70002F711F922F9323891F922F9327852F93B5
:102B800026852F93DC01CB0188199909AA09BB0975
:102B9000BF93AF939F938F93BF92AF929F928F9269
:102BA000F70180811F928F9383ED93E09F938F9322
:102BB0000E94E2330FB6F894DEBF0FBECDBF0F9078
:102BC0000F90DF91CF911F910F91FF90EF90BF90E9
:102BD000AF909F908F9008958F929F92AF92BF92E7
:102BE000CF92EF920F931F93CF93DF93EC014801A5
:102BF00059011F92EF92BF92AF929F920F937F93D2
:102C00006F935F934F931F92CF9289EC93E09F93C2
:102C10008F930E94E2338DB79EB70E960FB6F8944D
:102C20009EBF0FBE8DBFE11009C08C859D85AE850E
:102C3000BF8588169906AA06BB0688F48F898F5F20
:102C40008F8B9E898917B0F4DF91CF911F910F91DF
:102C5000EF90CF90BF90AF909F908F90089588890C
:102C60009989AA89BB8988159905AA05BB0530F3FE
:102C70001F8AEACF809127018111FACF86E20E9454
:102C80006C3DCF92DF92EF92FF926B017C0109C005
:102C90000E94682F292F6C157D058E052F0927FFAF
:102CA00009C08091BC0087FFF3CFFF90EF90DF90C9
:102CB000CF90089580E30E946C3D24EA2093BC00ED
:102CC0000E9441168091B90090E0A0E0B0E0803110
:102CD0009105A105B10521F00897A105B10509F4F9
:102CE00008958FE20E946C3D7F928F929F92AF92E7
:102CF000BF92CF92DF92EF92FF920F931F93CF93E9
:102D0000DF93782EC62F942EB52E822E0E94682F28
:102D10006B017C0120E8C20E28E3D21E21E0E21EF6
:102D2000F11CC701B6010E945D167092BB0084E8D9
:102D30008093BC00C701B6010E944116AA24AA9440
:102D4000AC0ECC23B1F0C92DDB2DB12C8FEFA81A1E
:102D5000B80AAC0EBD1E94E8992E89918093BB00F1
:102D60009092BC00C701B6010E944116AC16BD0688
:102D7000A1F7C701B6010E945D16872D816080937F
:102D8000BB0084E88093BC00C701B6010E944116D5
:102D9000DFEFD80D882009F15801CD2F84EC982E53
:102DA000CC2369F09092BC00C701B6010E94411685
:102DB0008091BB00F50181935F01C15099F7F80143
:102DC000ED0FF11DEF0184E88093BC00C701B6014F
:102DD0000E9441168091BB00888384E98093BC00E7
:102DE000DF91CF911F910F91FF90EF90DF90CF90E7
:102DF000BF90AF909F908F907F900895BF92CF9299
:102E0000DF92EF92FF920F931F93CF93DF93D82F10
:102E1000C62FB42E152F0E94682F6B017C0120E86D
:102E2000C20E28E3D21E21E0E21EF11CC701B6014A
:102E30000E945D16D093BB0084E88093BC00C7015C
:102E4000B6010E9441160FEF0C0FCC23A9F0CB2D39
:102E5000D12F10E00F5F1F4F0C0F1D1F84E8B82EFD
:102E600089918093BB00B092BC00C701B6010E945B
:102E70004116C017D107A1F784E98093BC00DF9108
:102E8000CF911F910F91FF90EF90DF90CF90BF9067
:102E90000895FB012FB7F8949281141644F4982BEF
:102EA000809592839181892381832FBF0895809596
:102EB000982392839181892381832FBF089588323B
:102EC000A0F567FD32C0E82FE695E695E695F0E0BF
:102ED000EE0FFF1FE45CFB4FA591B491109729F111
:102EE000877021E030E0A90102C0440F551F8A9588
:102EF000E2F7CA014FB7F89412963C9112976623F5
:102F000081F0382B282F209512963C93129711961A
:102F10003C911197232311962C9311974FBFBD011C
:102F20000895282F20953223EFCF8BE20E946C3D2D
:102F3000FB012FB7F8949281411105C08095892338
:102F400082832FBF0895892B82832FBF0895FB01B1
:102F50002FB7F8949281411109C0382F30959323EF
:102F600092839181892B81832FBF0895982B92831F
:102F70009181892B81832FBF0895CF92DF92EF92A9
:102F8000CF93DF93EC0161E088859985AA85BB85A5
:102F9000892B8A2B8B2B09F460E08C810E941A2EDE
:102FA0006B01E82E44E250E06DEB77E188810E94EE
:102FB0006A29FC01C48AD58AE68A21E048855985B8
:102FC0006A857B85452B462B472B09F420E04C85F1
:102FD0005D856E857F85452B462B472BB1F430E010
:102FE000232BFC0123A3488959896A897B89478B54
:102FF000508F618F728F6AE070E04F96DF91CF91B2
:10300000EF90DF90CF900C94FB2930E1E9CFCF9384
:10301000DF93EC016DEB77E188810E949929F894A8
:10302000FC01278D30A1232B69F44C815D816E81D9
:103030007F81FC01438F548F658F768F7894DF9169
:10304000CF91089584E10E946C3D8F929F92AF9240
:10305000BF92CF92DF92EF92FF921F93CF93DF93B5
:10306000EC01EF8CF8A0E114F10409F4F0C0F701D1
:103070008081918198A38F8F86809780A084B1846E
:1030800011E081149104A104B10409F4A1C06C8978
:103090007D898E89412F0E949817809147019091D8
:1030A0004801F70191838083F0924801E092470143
:1030B00081149104A104B104E9F08B8D9C8DAD8D38
:1030C000BE8D88169906AA06BB06A0F44F89588DB6
:1030D000698D7A8D411551056105710509F45BC053
:1030E0008C819D81AE81BF81480F591F6A1F7B1F54
:1030F000166022C08BA131E081149104A104B104B7
:1031000009F068C084FB992790F921E092273917CC
:1031100009F443C04F89588D698D7A8D4115510549
:1031200061057105D1F18C819D81AE81BF81480F10
:10313000591F6A1F7B1F1460EF8DF8A1309709F0AB
:1031400077C02BA1488B598B6A8B7B8B2071212BED
:103150002BA311FF5FC0880D991DAA1DBB1D12FD79
:1031600052C024E03DE23B832A838C839D83AE835F
:10317000BF8388869986AA86BB868B8D9C8DAD8DF4
:10318000BE8D88199909AA09BB098C879D87AE87CE
:10319000BF8781E011C012608BA1EF8DF8A130973D
:1031A000D9F4188A198A1A8A1B8A8071812B8BA3F9
:1031B000812F827011FD34C0DF91CF911F91FF905C
:1031C000EF90DF90CF90BF90AF909F908F90089539
:1031D00010E05DCF30E096CF4281538164817581EC
:1031E000488B598B6A8B7B8B8071912F9460892BD4
:1031F0008BA311FF0FC08C819D81AE81BF81880D93
:10320000991DAA1DBB1D2B2F84179507A607270BF9
:1032100027FDA7CF4C835D836E837F8381E0CCCF76
:1032200040E050E0BA018C819D81AE81BF8193CF97
:10323000C280D380E480F580872F4C155D056E0534
:103240008F0987FD07C08BA1B701A601C9CF85E112
:103250000E946C3D83E10E946C3DFC019289946068
:10326000928B1092260181E08093460180E00895C0
:103270000F931F93CF93DF938C0145E450E068E3F5
:1032800079E1FC0180810E946A29EC018DE299E1DB
:103290009B838A836FEE72E1F80184810E949929F1
:1032A0009D878C87DF91CF911F910F910895CF93C8
:1032B000DF93EC0145969F938F938B891F928F9399
:1032C0008F858F938E858F931F926F938EEC93E0F3
:1032D0009F938F930E94E2331B8A8E859F85019670
:1032E0009F878E878DB79EB70A960FB6F8949EBFBC
:1032F0000FBE8DBFDF91CF910895CF93DF93EC0187
:103300006B817C818D8140E00E94A7178D859E8511
:103310000E94EA396E817F81888541E00E944917C9
:103320008D859E850E94EA3969857A858B8541E085
:10333000DF91CF910C9449170F931F93CF93DF9395
:10334000EC01062F18E01DC06B817C818D8140E06F
:103350000E94A717000F8D859E850E94EA396E8115
:103360007F81888541E00E9449178D859E850E9456
:10337000EA39688179818A8140E00E94A71711505B
:1033800049F007FFE1CF69857A858B8541E00E948E
:103390004917E0CF69857A858B8541E00E944917FE
:1033A0008D859E850E94EA396E817F81888541E006
:1033B0000E944917E985FA8510818B8518238D8530
:1033C0009E850E94EA39688179818A8140E00E9465
:1033D000A71769857A858B8541E00E9449171111ED
:1033E00005C0DF91CF911F910F91089585E20E9452
:1033F0006C3D1F93CF93DF93EC01162F8D859E8537
:103400000E94EA3969857A858B8541E00E944917D7
:103410006E817F81888541E00E9449178D859E8558
:103420000E94EA396B817C818D8140E00E94A71760
:103430008D859E850E94EA39688179818A8140E084
:103440000E94A717612FCE01DF91CF911F910C949D
:103450009C190F931F93CF93DF93EC01F8940E9474
:10346000682F088519852A853B85DC01CB01800FF3
:10347000911FA21FB31F8C839D83AE83BF83CE0198
:103480000E94073B7894DF91CF911F910F9108958F
:103490009F92AF92BF92CF92DF92EF92FF920F93E3
:1034A0001F93CF93DF93CDB7DEB729970FB6F8946C
:1034B000DEBF0FBECDBF8C01962E9E012F5F3F4F0A
:1034C00087E0F90111928A95E9F78FEA88871986D2
:1034D00088EA8983F801C388D12C7601F5E1EF0EE3
:1034E000F11CE00EF11E47E061E0F801848595854E
:1034F0000E94C0139E01285F3F4F42E061E0F80147
:10350000848595850E94C0138985F82FFF73AF2E9F
:103510008074B82EF801EC0DFD1D8A81858B8B819E
:10352000F70181838C8182838D8183838E81848363
:103530008F818583F80183898A5F838B8B3270F555
:10354000BB2031F0F801808991890196918B808BA5
:10355000A11004C0F8018489882329F1F801828927
:1035600081FF0AC0C8010E94B53AF80182898B7FA9
:10357000828BC8010E94291A29960FB6F894DEBFE3
:103580000FBECDBFDF91CF911F910F91FF90EF90B4
:10359000DF90CF90BF90AF909F900895692DC801A4
:1035A0000E945719CDCF1092260181E080934601E9
:1035B000E3CF4F925F926F927F928F929F92AF92E2
:1035C000BF92DF92EF92FF920F931F93CF93DF93FF
:1035D00000D000D0CDB7DEB77C01FC01D08068E31D
:1035E00079E18D2D0E9499298C01F70180859185C3
:1035F000A285B385892B8A2B8B2BB1F1C8010E9440
:10360000B53AF70184819581A681B781F801848359
:103610009583A683B783F70180859185A285B385BD
:10362000F80180879187A287B38781E0828B118A16
:10363000108A17861686138A148AC8010E94073BCF
:103640000F900F900F900F90DF91CF911F910F91DE
:10365000FF90EF90DF90BF90AF909F908F907F9002
:103660006F905F904F900895C8010E94B53AF8019D
:10367000128A81E0848B6D2DC8010E94481A8EE267
:103680008B831C820E94682F2B013C019E012D5FC1
:103690003F4F42E060E0F801848595850E94C013A9
:1036A0000E94682F4B015C018FEA89831A829E0178
:1036B0002F5F3F4F42E061E0F801848595850E94CD
:1036C000C0138A818F71F82EF8018389882331F025
:1036D0006D2DC8010E945719F8018389F80191895D
:1036E0009F9390899F931F92FF921F928F9387853C
:1036F0008F9386858F93D501C40184199509A609F6
:10370000B709BF93AF939F938F937F926F925F920E
:103710004F921F92DF9283ED93E09F938F930E94CD
:10372000E2330FB6F894DEBF0FBECDBF89CF9F92B4
:10373000AF92BF92CF92DF92EF92FF920F931F93BF
:10374000CF93DF93EC01C62E942ED52EB22E7801A6
:103750006C85862F8160A82EC11085C06A2DCE0190
:103760000E94F9198FEF8B0DBB2009F46EC0670121
:10377000C80ED11C69857A858B8541E00E94491766
:1037800008E010E08D859E850E94EA396E817F8178
:10379000888541E00E9449178D859E850E94EA39FF
:1037A000110FE985FA8590818B85892391E009F4D1
:1037B00090E0192B688179818A8140E00E94A717E7
:1037C000015001F769857A858B8541E00E94491790
:1037D000CE14DF04F1F06B817C818D8140E00E948A
:1037E000A7178D859E850E94EA396E817F81888525
:1037F00041E00E9449178D859E850E94EA396881C3
:1038000079818A8140E00E94A717F70111937F0117
:10381000B1CF69857A858B8541E00E9449178D85F6
:103820009E850E94EA396E817F81888541E00E94F1
:1038300049178D859E850E94EA39688179818A8140
:1038400040E00E94A717F6011083CE01DF91CF91CF
:103850001F910F91FF90EF90DF90CF90BF90AF90AE
:103860009F900C947D19CE010E94F919092D1D2DF0
:10387000CA94D12CEFEFCE1ADE0AC00ED11EF80189
:1038800061918F01CE010E949C19C016D106B9F733
:1038900065CFDF92EF92FF920F931F93CF93DF9349
:1038A0007C01C62FD42E152FFC0164850E94F919C6
:1038B0000FEF0C0FCC2371F0CD2DD12F10E00F5F47
:1038C0001F4F0C0F1D1F6991C7010E949C19C01743
:1038D000D107C9F7C701DF91CF911F910F91FF90D9
:1038E000EF90DF900C947D198EE10E946C3D0F9358
:1038F0001F93CF93DF93FC01A189B2898D919C9195
:103900001197928B818B16968D919C911797C085FC
:10391000D185228521113FC02FB7F894AC015527DE
:10392000598348832FBF2091470130914801119658
:103930003C932E93B0934801A0934701A189B2898B
:10394000109759F5278530898217930741F08385B1
:103950009485A585B6850097A105B10531F480E071
:10396000DF91CF911F910F91089544815581668118
:103970007781840F951FA61FB71F84839583A68325
:10398000B78384E79CE19383828381E0DF91CF91C9
:103990001F910F9108958883C6CF12964D915D9126
:1039A0006D917C911597278530898217930741F097
:1039B00083859485A585B6850097A105B10551F449
:1039C000448355836683778381E0DF91CF911F9194
:1039D0000F9108950481158126813781800F911FF1
:1039E000A21FB31F2B2F84179507A607270B27FFAE
:1039F000E7CF8DE10E946C3DEF92FF920F931F93F2
:103A0000CF93DF937C0166E77DE1DC018C910E941E
:103A100099298C010E94152AEC01F7018481958176
:103A2000A681B7818A839B83AC83BD838085918582
:103A30009F838E83F89419821882D80151968D91B4
:103A40009C915297892BB9F15396ED91FC91549723
:103A5000D183C0835496DC93CE93539780E090E05B
:103A60007894892B39F4DF91CF911F910F91FF90BA
:103A7000EF900895C8010E94B53AD80112968D9131
:103A80009C91139784579C41F1F08A819B81AC8172
:103A9000BD8127E73CE1F80133832283848395834A
:103AA000A683B783C801DF91CF911F910F91FF903B
:103AB000EF900C94073BF801D48BC38BD28BC18B56
:103AC00081E090E0CDCF8A819B81AC81BD81F801FE
:103AD0004481558166817781272F481759076A07E6
:103AE0002B0B27FFD6CF8DE10E946C3DCF92DF924A
:103AF000EF92CF93DF93EC01488559856A857B85EA
:103B00002C858C810E94362C6B01E82E45E150E01B
:103B100066E77DE188810E946A29FC01C086D18622
:103B2000E28688899989908B87878C899D89AE895F
:103B3000BF8983879487A587B68787E79CE19383AE
:103B4000828368E070E0CF014196DF91CF91EF90E2
:103B5000DF90CF900C94FB290F931F93CF93DF93AB
:103B60008C016BE37EE1FC0180810E949929EC01CC
:103B70000E94B53A909100018A8D981303C08FEF8F
:103B800080930001F80184819581A681B781888B9B
:103B9000998BAA8BBB8B8C839D83AE83BF838085DF
:103BA0009185A285B3858C879D87AE87BF878485E5
:103BB0008E8F91E0980F9D8F40895189628973891A
:103BC000488759876A877B87248935893F8B2E8B65
:103BD000208D318D398F288F948D9C8F811105C058
:103BE000DF91CF911F910F910895CE01DF91CF9179
:103BF0001F910F910C94073BEF92FF920F931F932D
:103C0000CF93DF938C0169E27EE1FC0180810E9409
:103C10009929EC01F8948E8980FF13C07E01F8E0A9
:103C2000EF0EF11CC7010E94B53AF801848195811D
:103C3000A681B7818C879D87AE87BF87C7010E9409
:103C4000073B7894DF91CF911F910F91FF90EF90F8
:103C5000089549E150E069E27EE1FC0180810E9423
:103C60006A292FE137E2FC01338322832AE337E21A
:103C7000338722870895CF93DF93DC0114969C91BC
:103C80001497C0E0D0E0FE01E45AFC4FE4919E1787
:103C900039F02196C830D105B1F78DE20E946C3D14
:103CA00087E980937A0030917E0081E090E00C2ECD
:103CB00001C0880F0A94EAF7832B80937E004FE1BE
:103CC00050E06BE37EE18C910E946A29FC0181E760
:103CD0009EE193838283C28F81E0858FDF91CF91B4
:103CE0000895FC0180917A0086FF0EC08481958141
:103CF000A681B7818853984FAF4FBF4F8483958378
:103D0000A683B78381E00895828D90910001981772
:103D100061F09F3F59F78093000187708064809322
:103D20007C0087ED80937A00E1CF8FEF80930001D4
:103D30002091780030917900858D968D891780F5D6
:103D400044895589240F351F8F5F358B248B858FD0
:103D5000891760F18689978928173907C8F1808DFE
:103D6000918D82179307A0F1138E1092260181E0A6
:103D700080934A0140895189628973898085918540
:103D8000A285B385840F951FA61FB71F808B918BCB
:103D9000A28BB38B84839583A683B78381E0089538
:103DA00081E0358B248B858F8917A0F6448155815E
:103DB0006681778184859585A685B785840F951F53
:103DC000A61FB71F84839583A683B78381E00895D8
:103DD000838D8F5F838F948D891738F280912701AF
:103DE0008111C2CF8AE10E946C3D1F93CF93DF9374
:103DF000EC01162FAC89BD891097B9F01296ED91A0
:103E0000FC9113978D919C9111979D8B8C8B1196A2
:103E10001C921E9213961C921E921297612FCD0136
:103E20000995AC89BD89109749F71092260181E068
:103E300080934901DF91CF911F910895EF92FF92F6
:103E40001F93CF93DF937C01FC01108169E27EE137
:103E5000812F0E949929EC01F8948E8980FF09C076
:103E6000F70164816F8B8A7F84608E8BCE010E9404
:103E7000F51ECE010E94B53ACE0108960E94B53AD1
:103E80001E8A8F8978941F921F921F921F921F92F1
:103E90008F931F921F921F921F938BEF93E09F931C
:103EA0008F930E94E2338DB79EB70C960FB6F894AD
:103EB0009EBF0FBE8DBFDF91CF911F91FF90EF90FE
:103EC0000895CF93DF93EC010E94B53ACE01089696
:103ED0000E94B53AEC89FD89309751F0908181813B
:103EE0001382128211821082E92FF82F3097B1F7D6
:103EF0001D8A1C8A188E1F8A1E8ADF91CF91089511
:103F00000F931F93CF93DF938C0169E27EE1FC0155
:103F100080810E949929EC01F8940E94611F81E040
:103F20008E8BF80184819581A681B7818C839D83D6
:103F3000AE83BF8380859185A285B385888B998B5D
:103F4000AA8BBB8B892B8A2B8B2B19F0CE010E945D
:103F5000073BF8018485888F7894DF91CF911F917A
:103F60000F910895FC01808982FD19C08460808BC7
:103F70001092260181E080934B0144815581668136
:103F8000778180859185A285B385840F951FA61FB3
:103F9000B71F84839583A683B78381E008958489BE
:103FA0008F5F848BE5CFFF920F931F93CF93DF93A7
:103FB000EC01F88483E08F1508F145E450E063EDEF
:103FC0007FE188810E946A298C0182EB9FE1F801E0
:103FD000938382836FEE72E18C810E949929F801AC
:103FE00095878487FC01858180FF0BC0F801F18AE9
:103FF000DF91CF911F910F91FF90089589E20E9468
:104000006C3D88E20E946C3DCF93DF93EC014596B6
:104010009F938F938A891F928F938F858F938E851D
:104020008F931F926F9380EB93E09F938F930E94E7
:10403000E2331A8A8E859F8501969F878E878DB77A
:104040009EB70A960FB6F8949EBF0FBE8DBFDF9144
:10405000CF910895FF920F931F93CF93DF938C011D
:10406000FC01F08063ED7FE18F2D0E949929EC0126
:104070000E94B53A188AF80180859185A285B3859A
:10408000892B8A2B8B2B01F58A89811118C08F858A
:104090008F938E858F931F92FF9285EB93E09F9372
:1040A0008F930E94E2330F900F900F900F900F901C
:1040B0000F90DF91CF911F910F91FF9008956F2D79
:1040C000CE010E940420E3CFF80184819581A6816E
:1040D000B7818C839D83AE83BF8380859185A285C4
:1040E000B38588879987AA87BB871F861E861A8A09
:1040F00084858B8BCE01DF91CF911F910F91FF9023
:104100000C94073BCF93DF93EC016A8D662309F48F
:1041100053C0FC0150E031E020E0A38DB48D4C9100
:10412000958D942309F0532B2F5F330F339626136D
:10413000F4CF2C85922F952729F08D8585278095A2
:104140009823D9F4888D5D8787FD03C0815070F175
:10415000888F4C815D816E817F8188859985AA8554
:10416000BB85840F951FA61FB71F8C839D83AE83CD
:10417000BF8381E0DF91CF910895982F90952923F7
:104180008523822B8C879E859830E0F621E0290FCD
:104190002E87FE01E90FF11D87871092260181E02D
:1041A00080934C018FEF888F5D87D3CF10922601CB
:1041B00091E090934C01CCCF50E0BBCF0F931F9375
:1041C000CF93DF938C016BE171E2FC0180810E944F
:1041D0009929EC010E94B53AF80184819581A68164
:1041E000B7818C839D83AE83BF8340855185628573
:1041F0007385488759876A877B8780898D878C87F5
:104200001E861F8A8EEF888F8485898F87FD10C058
:10421000452B462B472B29F4DF91CF911F910F910E
:104220000895CE01DF91CF911F910F910C94073B20
:104230008FE10E946C3DCF93FC01C481C930B8F47A
:104240004C2F50E09A01220F331F420F531F455E3F
:104250005F4F6BE171E2FC0180810E946A29FC01E1
:10426000C28F22E830E233832283CF91089581E226
:104270000E946C3D0F931F93CF93DF938C016BE1F2
:1042800071E2DC018C910E949929FC01D8011496FD
:104290009C91828D9817B8F4292F30E0E901CC0F5A
:1042A000DD1F2C0F3D1FEF01C20FD31FF8016485E6
:1042B00080850E945F176B8F7C8F8D8FDF91CF91F0
:1042C0001F910F91089580E20E946C3DFC01448192
:1042D000558166817781208580810C94362CFC0184
:1042E00096899460968B1092260181E080934D010F
:1042F00080E008950F931F93CF93DF938C0148E4E0
:1043000050E06AE771E2FC0180810E946A29EC01B9
:104310008FE691E29B838A836BE77BE2F8018481DD
:104320000E9499299D878C87DF91CF911F910F91D2
:1043300008954F925F926F927F928F929F92AF9269
:10434000BF92CF92DF92EF92FF920F931F93CF9382
:10435000DF9300D01F92CDB7DEB76C016AE771E240
:10436000DC018C910E9499297C010E94682F4B01ED
:104370005C0182E78B83D7011C96ED91FC911D9720
:104380008E010F5F1F4F22E0AE014D5F5F4F61E076
:1043900080810E9474160E94682F2B013C01898144
:1043A0008F718983F70181898F9380898F93248905
:1043B0003589ABEABAEA0E94153E9695879596959F
:1043C00087959F938F9387891F928F9387858F936C
:1043D00086858F93D301C20188199909AA09BB095F
:1043E000BF93AF939F938F93BF92AF929F928F9201
:1043F000D6018C911F928F938BEA93E09F938F93BA
:104400000E94E2330FB6F894DEBF0FBECDBF0F900F
:104410000F900F90DF91CF911F910F91FF90EF9030
:10442000DF90CF90BF90AF909F908F907F906F90D4
:104430005F904F9008957F928F929F92AF92BF921C
:10444000CF92DF92EF92FF920F931F93CF93DF9360
:104450007C01DC01DC9163ED7FE18D2F0E949929C5
:104460008C01F701C481B084A184DC0151969C9039
:10447000B2E09B1609F44FC00E94682F6B017C01CB
:104480002B2D3A2D4C2F61E0D8011C968D919C91DB
:104490001D970E94C0130E94682F8B019C010C196C
:1044A0001D092E093F09013213402105310558F538
:1044B0004C2F50E0E1E09E1659F1AF92BF925F930E
:1044C0004F93FF92EF92DF92CF921F92DF938AEB8E
:1044D00093E09F938F930E94E2338DB79EB70C9623
:1044E0000FB6F8949EBF0FBE8DBFDF91CF911F9185
:1044F0000F91FF90EF90DF90CF90BF90AF909F9083
:104500008F907F90089540E050E0E1E09E12D5CF7B
:104510006B017C01D2CFDC011C96ED91FC911D97C3
:1045200094808280738040E0682D772D892D0E94D1
:1045300098170E94682F6B017C01B0E1CB0ED11C53
:10454000E11CF11C0E94682F2F2DC616D706E80625
:10455000290B27FFF7CFF89441E0682D772D892D9F
:104560000E9498170E94682F6B017C0178942B2D74
:104570003A2D4C2F61E0F801848595850E94C01387
:104580004C2F50E09ACF0F931F93CF93DF93EC0102
:10459000F8940E94682F088519852A853B85DC01DF
:1045A000CB01800F911FA21FB31F8C839D83AE830D
:1045B000BF83CE010E94073B7894DF91CF911F917A
:1045C0000F910895CF93DF93EC0148969F938F93BB
:1045D0008F891F928F938F858F938E858F931F92D4
:1045E0006F9386EA93E09F938F930E94E2331F8A32
:1045F0008E859F8501969F878E878DB79EB70A9679
:104600000FB6F8949EBF0FBE8DBFDF91CF91089576
:104610004F925F926F927F928F929F92AF92BF92D2
:10462000DF92EF92FF920F931F93CF93DF9300D00F
:1046300000D0CDB7DEB78C01DC01DC906AE771E217
:104640008D2D0E9499297C01F80180859185A28594
:10465000B385892B8A2B8B2BC9F1C7010E94B53AF0
:10466000F80184819581A681B781F70184839583C0
:10467000A683B783F80180859185A285B385F7016C
:1046800080879187A287B38781E0868B17861686FD
:10469000118A108A178A138A128A158A148AC70106
:1046A0000E94073B0F900F900F900F90DF91CF91DA
:1046B0001F910F91FF90EF90DF90BF90AF909F9070
:1046C0008F907F906F905F904F900895C7010E94E8
:1046D000B53AD70156961C9283E289831A820E94CA
:1046E000682F4B015C01D7011C96ED91FC911D9741
:1046F000AE014F5F5F4F62E080810E94FE160E9414
:10470000682F2B013C018AE38C83D7011C96ED9125
:10471000FC911D978E010D5F1F4F21E0AE014C5F94
:104720005F4F61E080810E9474168B8184FD48C0D8
:10473000D70157968C91882321F06D2DC7010E94D7
:10474000E222B7016E5E7F4FF701848595850E9456
:104750009D2FD70151962C9151972F9350962C91C4
:104760002F939C01ABEABAEA0E94153E9695879575
:10477000969587959F938F93F70187891F928F93C3
:1047800087858F9386858F93D301C20188199909F4
:10479000AA09BB09BF93AF939F938F93BF92AF9228
:1047A0009F928F921F92DF928BEA93E09F938F9359
:1047B0000E94E2330FB6F894DEBF0FBECDBF72CFBA
:1047C000F701808991890196918B808BB1CFCF922F
:1047D000DF92EF92FF92CF93DF93FC01A085B1852A
:1047E00082858C93968581E089278687C82FC17042
:1047F000C688D788E08CF18C97859F5FD1899D17FB
:1048000008F05FC0892F869586958695DF01A80FF1
:10481000B11D5A962C9130E0892F877002C03595D2
:1048200027958A95E2F72170B701A601C217A9F072
:1048300033C0892F869586958695DF01A80FB11D17
:104840005A962C9130E0892F877002C035952795B4
:104850008A95E2F72170C2131FC04C0D5D1D6E1DBD
:104860007F1D9F5F9D1728F38CED96E293838283D3
:1048700084819581A681B781480F591F6A1F7B1FCC
:10488000448355836683778381E0DF91CF91FF90E6
:10489000EF90DF90CF900895978784819581A681CE
:1048A000B781480F591F6A1F7B1F44835583668356
:1048B000778381E0DF91CF91FF90EF90DF90CF90F1
:1048C0000895B701A601D0CF6F927F928F92CF92B9
:1048D000DF92EF92FF92CF93DF93EC0160E08C8147
:1048E0000E941A2E3B01882EC884D984EA84FB8456
:1048F000D7FC24C0A601415F5F4F64E674E2888163
:104900000E946A29FC01608271828282D686C586F5
:104910008C859D859483838388899989AA89BB899D
:1049200081879287A387B487DF91CF91FF90EF9023
:10493000DF90CF908F907F906F90089584E20E94D7
:104940006C3DCF92DF92EF92FF920F931F93CF9324
:10495000DF93EC01E885F9858A8580830E94682FC2
:104960003E8521E023272E872F852F5F2F8721303B
:1049700009F45CC02530E0F40C811D812E813F815B
:104980004A895B896C897D89DB01CA01800F911F8F
:10499000A21FB31F8C839D83AE83BF8381E0DF9111
:1049A000CF911F910F91FF90EF90DF90CF900895DE
:1049B000CC80DD80EE80FF80AB01BC014C195D092D
:1049C0006E097F098E899F89A88DB98D481B590B67
:1049D0006A0B7B0BDB01CA010296A11DB11DB7FD5D
:1049E00034C0B595A79597958795B595A795979553
:1049F00087950A891B892C893D89800F911FA21FE9
:104A0000B31F8E8B9F8BA88FB98F27EE33E23B832A
:104A10002A834C0D5D1D6E1D7F1D840F951FA61FE3
:104A2000B71F8C839D83AE83BF83B8CF0C811D815C
:104A30002E813F81AB01BC01401B510B620B730BFC
:104A40004E8B5F8B688F798F9BCFDB01CA010596F8
:104A5000A11DB11DC6CFEF92FF920F931F93CF936D
:104A6000DF937C016CEC75E2FC0180810E94992946
:104A7000EC011E8511FF07C0DF91CF911F910F91AF
:104A8000FF90EF900895F701048160857185F484AB
:104A90000B3008F045C0FAE0FF1508F441C0402F84
:104AA00050E04A960E94863E1F86117312601E8750
:104AB000802F880F880F880F898BFF0CFF0CFF0C4D
:104AC000F88A002349F08A8D8F738A3229F481EAAB
:104AD00094E29B838A830CC08A899B89AC89BD89B7
:104AE0008E8B9F8BA88FB98F87EE93E29B838A83EF
:104AF000F8940E94682FDC01CB018058934FAF4F90
:104B0000BF4F8C839D83AE83BF83CE010E94073B42
:104B10007894DF91CF911F910F91FF90EF900895BE
:104B200082E20E946C3D0F931F93CF93DF938C0121
:104B30006BE171E2DC018C910E949929EC01D801B2
:104B40001496EC918F898E0F8F8BF8948E85E817D1
:104B5000D0F48E1BF0E03F96EC0FFD1FDE011F9698
:104B60002FEF280F30E0205F3F4F2C0F3D1F91911A
:104B70009D93A217B307D9F78E877894DF91CF91D1
:104B80001F910F9108951E868EEF888F7894DF9184
:104B9000CF911F910F9108957F928F929F92AF9224
:104BA000BF92CF92DF92EF92FF920F931F93CF931A
:104BB000DF93EC0144E250E06CEC75E288810E94E6
:104BC0006A298C0178848C809D80AE80BF80CC84E3
:104BD000DD84EE84FF8461E0711001C060E0882D07
:104BE0000E945F17F80163877487858761E08C2DC9
:104BF0000E941A2EF80160877187828788899989B7
:104C0000AA89BB89828B938BA48BB58B711018C03A
:104C100091E08C149D04AE04BF04C1F080E0892BA8
:104C2000F8018687DF91CF911F910F91FF90EF9050
:104C3000DF90CF90BF90AF909F908F907F9008951E
:104C400091E18C149D04AE04BF0441F780E2E7CFEC
:104C5000CF93DF93EC018E8585FD0DC06885798546
:104C60008A8541E00E9498178E85807381608E87C7
:104C7000DF91CF910895688579858A8541E00E940A
:104C8000A7178E85807381608E87DF91CF910895FD
:104C9000CF93DF93FC01A385B4855C918785982F22
:104CA000977021E030E001C0220F9A95EAF7982F23
:104CB000969596959695DF01A90FB11D5A969C91F0
:104CC0005A9745854523E1F0292B5A962C938F5FFF
:104CD00090898917E8F487874481558166817781B7
:104CE00086899789A08DB18D840F951FA61FB71F48
:104CF00084839583A683B78381E0DF91CF91089564
:104D0000209529235A962C938F5F9089891718F341
:104D1000EF01CF010E9428268E8588608E87109231
:104D2000260181E080934E0180E0DF91CF910895CC
:104D3000CF93DF93FC01A385B4859C91858589235E
:104D4000E9F0868584608687878591E0980F97874C
:104D5000803408F5448155816681778186899789F9
:104D6000A08DB18D840F951FA61FB71F84839583D7
:104D7000A683B78381E0DF91CF910895868582FF76
:104D8000E3CF178688E496E293838283CF01DF9195
:104D9000CF910C944826EF01108ACF010E9428265B
:104DA0008E8588608E871092260181E080934E0167
:104DB00080E0DF91CF9108951F93CF93DF93EC01B3
:104DC0001889112369F14E8545FD23C01F8688E9A6
:104DD00096E29B838A838E899F89A88DB98D880FDF
:104DE000991FAA1FBB1F880F991FAA1FBB1F4C81A9
:104DF0005D816E817F81840F951FA61FB71F8C83F5
:104E00009D83AE83BF8311E0812FDF91CF911F91EE
:104E1000089540716B857C858D850E944917D6CF9A
:104E20000E9428268E8588608E871092260181E058
:104E300080934E01812FDF91CF911F910895FC0146
:104E400086898460868B1092260181E080934901D7
:104E5000448155816681778180899189A289B3894E
:104E6000840F951FA61FB71F84839583A683B783DE
:104E700081E00895FC013897968990FF08C0608D05
:104E8000678B9A7F9460968BCF010E94F51E80E01D
:104E90000895FC01A085B1859C9182858923D1F07C
:104EA000818D80958170C9F4838D815031F1838F1C
:104EB000448155816681778187859089A189B289EE
:104EC000840F951FA61FB71F84839583A683B7837E
:104ED00081E00895818D817039F384E997E29383AD
:104EE000828383899489A589B68984839583A683DF
:104EF000B783828D838F81E00895A789B08D569600
:104F00009C915697892F817090FFE3CF648D5796BF
:104F10006C9357979A7F946056969C935697CD01C1
:104F20000E94F51E80E008950F931F93FC01A08559
:104F3000B1859C91048115812681378143855485F3
:104F400065857685400F511F621F731F82858923F7
:104F500061F0818D8095817059F04483558366831B
:104F6000778381E01F910F910895818D8170A9F75A
:104F7000438B548B658B768B89E497E29383828392
:104F8000CF011F910F910C944927CF93FC01C08151
:104F900067E378E28C2F0E949929FC01F894818DB7
:104FA00033894489558966897894A085B1852C9187
:104FB0009285922321E009F420E01F922F936F93B2
:104FC0005F934F933F93869581701F928F931F92AB
:104FD000CF9380E094E09F938F930E94E2338DB74C
:104FE0009EB70C960FB6F8949EBF0FBE8DBFCF91A3
:104FF0000895CF93FC01C0816CE870E18C2F0E9472
:105000009929FC01F89480A191A1A2A1B3A124A5A2
:10501000468557856089718924FD04C0769567951A
:1050200057954795841B950BA60BB70BB7FF07C089
:10503000B095A095909581959F4FAF4FBF4F7894B5
:10504000B054BF93AF939F938F931F92CF9385E0FC
:1050500094E09F938F930E94E2338DB79EB708969A
:105060000FB6F8949EBF0FBE8DBFCF9108950F93DA
:105070001F93CF93DF93EC014DE150E067E378E2BB
:1050800088810E946A298C0168858C810E945F1743
:10509000F801608771878287DF91CF911F910F910F
:1050A00008950F931F93CF93DF938C0167E378E20A
:1050B000FC0180810E949929EC010E94B53AF80117
:1050C00084819581A681B7818C839D83AE83BF83C4
:1050D00080859185A285B3858F87988BA98BBA8BA4
:1050E00084858A8F882361F1F8014089518962891A
:1050F00073894B875C876D877E8724E937E23B8322
:105100002A838B8F84899589A689B789892B8A2BD5
:105110008B2BA1F482E0898F69E27EE1F801808D1A
:105120000E949929988F8F8BF801848D8C8FCE01E6
:10513000DF91CF911F910F910C94073B83E0EBCF50
:10514000188E1F8A198EDF91CF911F910F910895AC
:105150000F931F93CF93DF938C01EC01A897CE019F
:105160000E94B53A1C821D821E821F821A8A1B8AE7
:105170001C8A1D8A88A199A1AAA1BBA12CA54E8534
:105180005F856889798924FD04C076956795579570
:105190004795841B950BA60BB70BB7FD40C0B09588
:1051A000A095909581959F4FAF4FBF4F88A399A32E
:1051B000AAA3BBA31E861F86188A198A2471286099
:1051C0002CA76D8D7E8D8F8D40E00E9498174CA589
:1051D00044706A8D7B8D8C8D0E949817D80114972E
:1051E000ED91FC9111973097A9F040914701909172
:1051F000480101C0F9012081318140839183F093FE
:105200004801E09347014E2F9F2F2115310591F75B
:105210001D921C92DF91CF911F910F910895B0952F
:10522000A095909581959F4FAF4FBF4FB8CF0F93EB
:105230001F93CF93DF938C016CE870E1FC018081B8
:105240000E949929EC0169E27EE1F80184810E94C3
:105250009929BE01685D7F4F4FB7F8942AA53BA5F9
:10526000232B89F428EA38E23BA72AA7FC012489EA
:10527000358939A728A7758B648B4FBFDF91CF91F4
:105280001F910F91089589E10E946C3DCF93DF93A8
:10529000EC01988140913701A0913801B09139011A
:1052A0000BC0FD0184E0989FE00DF11D11242081C9
:1052B00031812617370741F09F5F941790F380E004
:1052C00090E0DF91CF910895988382819381DF915F
:1052D000CF910895CF93DF9390913701891730F5DF
:1052E000C82FD0E0CC0FDD1FCC0FDD1FE0913801BF
:1052F000F0913901EC0FFD1F80819181892BB1F470
:1053000080913F0190914001892B81F471836083EA
:10531000CA010E94BF332091380130913901C20F78
:10532000D31F9B838A83DF91CF9108958BE00E94E6
:105330006C3D90913701891788F4E0913801F09124
:10534000390194E0899FE00DF11D11248081918144
:105350008617970719F48281938108958CE00E9443
:105360006C3DCF92DF92EF92FF92CF93DF93C0918B
:105370003F01D09140012097B9F121976E01E12CB6
:10538000F12CA0913E01B0E02097D9F020E030E070
:1053900040E050E0BA0180913C0190913D01FC0158
:1053A000E20FF31F4F5F5F4F6F4F7F4F2A0F3B1F7F
:1053B000820F931F918380834C155D056E057F05D9
:1053C00050F380913C0190913D01CA9FF001CB9F29
:1053D000F00DDA9FF00D1124E80FF91F11821082F1
:1053E0009093480180934701DF91CF91FF90EF9018
:1053F000DF90CF900895FC011382128211821082F7
:105400006F3F710509F07CF480913F01909140015C
:10541000892B49F480913E0190E08617970714F498
:1054200060933E0108950E94EF2D2FB7F89480916C
:10543000470190914801009749F0FC01408151815A
:1054400050934801409347012FBF08958FE00E9479
:105450006C3D80912701882329F0823011F0109251
:105460002701089582E00E946C3D88E00E946C3D17
:10547000CF92DF92EF92FF920F931F930E94682FBB
:105480009F938F937F936F9301E010E020E030E0D3
:10549000C0905301D0905401E0905501F090560116
:1054A0006C157D058E059F0518F000E010E0980151
:1054B00080914F0190915001A0915101B091520102
:1054C000800F911FA21FB31FBF93AF939F938F9322
:1054D0008EE194E09F938F930E94E2338DB79EB745
:1054E0000A960FB6F8949EBF0FBE8DBF1F910F9105
:1054F000FF90EF90DF90CF9008950E94682F9F93C8
:105500008F937F936F9389E194E09F938F930E9491
:10551000E2330F900F900F900F900F900F9008951F
:10552000CF93DF93EC016BE77BE288810E9499299E
:105530006C8148855985FC01238120FD06C0FC0152
:105540008081DF91CF910C94FE1681819281DF9151
:10555000CF910C94491C2F923F924F925F926F9281
:105560007F928F929F92AF92BF92CF92DF92EF92F3
:10557000FF920F931F93CF93DF9300D000D000D002
:10558000CDB7DEB78C012DB73EB73D832C836BE7DB
:105590007BE2DC018C910E9499299A838983F8012E
:1055A000F481FB83D80118968D909C9019971C96D6
:1055B0004D905D906D907C901F9740FC99C07694C3
:1055C000679457944794F801E088F188C42CD12C53
:1055D000FB810F2F10E0C8018C0D9D1D2DB73EB72C
:1055E000281B390B0FB6F8943EBF0FBE2DBF8DB7E9
:1055F0009EB701965C01A981BA8113963C90A801DF
:10560000B4010E94863EB32DB170BE8330FE53C0FC
:105610001501200E311E8101242DA4016B81E98129
:10562000FA81818192810E94971BC114D10409F4EF
:1056300053C0A6014E0D5F1DF10120E030E0D701FF
:105640008D917D018095908189238083DA019D91E0
:10565000AD01892B81932F5F3F4F2C153D057CF3C6
:10566000BE81B11139C06B81640DA501E981FA8158
:1056700080810E94FE162C813D810FB6F8943EBFBA
:105680000FBE2DBF26960FB6F894DEBF0FBECDBF5E
:10569000DF91CF911F910F91FF90EF90DF90CF900E
:1056A000BF90AF909F908F907F906F905F904F9042
:1056B0003F902F9008951501200E311E8101242D59
:1056C000A4016B81E981FA8180810E947416C11462
:1056D000D10409F0AECFC7CF6B81640DA501A981BC
:1056E000BA8111968D919C9112970E94491CC3CF4B
:1056F0008CE10E946C3D44E050E06BE77BE2FC01F2
:1057000080810C946A29AF92BF92CF92DF92EF9280
:10571000FF920F931F93CF93DF93CDB7DEB77C013A
:10572000ADB6BEB6FC01C0806BE77BE28C2D0E945B
:105730009929F701648140855185D4842DB73EB7FE
:105740002D1931090FB6F8943EBF0FBE2DBFEDB72E
:10575000FEB731967F01FC012381870120FD2AC01D
:105760002D2DFC0180810E947416FF92EF921F92F2
:10577000DF921F92CF928CEE93E09F938F930E94C3
:10578000E2332DB73EB7285F3F4F0FB6F8943EBFC8
:105790000FBE2DBF0FB6F894BEBE0FBEADBEDF91DB
:1057A000CF911F910F91FF90EF90DF90CF90BF901E
:1057B000AF9008952D2D818192810E94971BD5CFA6
:1057C0008F929F92AF92BF92FF920F931F93CF93AE
:1057D000DF938C01FC0184858F77F82E6BE77BE2E9
:1057E00080810E949929EC01F80184819581A6812C
:1057F000B781892B8A2B8B2BB1F58091BC0082FF5E
:1058000010C08F2D880F88838B8182608B83DF91FE
:10581000CF911F910F91FF90BF90AF909F908F906D
:105820000895F80180849184A284B38461E084E1C6
:105830000E941A2E61E085E10E941A2E1092B90092
:10584000F0E88F16FAE19F06F6E0AF06B10438F4EF
:1058500088E48093B80084E08093BC00D2CF8CE0D1
:105860008093B800F8CF81E30E946C3DCF92DF9225
:10587000EF92FF921F93CF93DF936A017B0166E45F
:1058800074E0FB019491981749F0675F7F4FF4E053
:105890006C377F07B1F784E30E946C3DFB013896BB
:1058A000949191FF19C030EAC3163FE5D306E10495
:1058B000F10408F082C0A8EDCA16A7E2DA06E104F6
:1058C000F10408F08BC0B7EFCB16B8E0DB06E104BB
:1058D000F10488F012E010C0F8EBCF16F7E4DF0611
:1058E000E104F10408F058C037EFC31638E0D306DE
:1058F000E104F10478F711E0FB013396A591B4912E
:10590000FB013596C591D491FB0137963491E82F70
:10591000E695E695E695F0E0EE0FFF1FE45CFB4FA1
:10592000459154918770E1E0F0E07F0101C0EE0CF9
:105930008A95EAF76F5F7F4FFB01C590D490892F5E
:105940008170A038B10509F45CC0EFB7F894988174
:10595000977011F0191352C0188381114AC09FB774
:10596000F894622F70E0E601798368839FBF9C9171
:105970003160392B3C93DA0111969C911197E92AF9
:105980001196EC92EFBFB601DF91CF911F91FF907E
:10599000EF90DF90CF900895A0ECCA16AEE3DA0640
:1059A000A1E0EA06F104D0F0C114BBEFDB06B4E0DD
:1059B000EB06F10488F414E09FCFC0E8CC16CEE7E4
:1059C000DC06C1E0EC06F10458F4D0E4CD16DFEBC0
:1059D000DD06E104F10478F315E08ECF13E08CCFFF
:1059E000C114EBEFDE06E4E0EE06F10428F416E065
:1059F00083CFE6012883BBCF17E07ECF82E30E94EE
:105A00006C3D83E30E946C3D0F931F93FC01A489BE
:105A1000B58986898C9393A181E0892783A34481EA
:105A200055816681778180FF12C0008511852285AE
:105A30003385400F511F621F731F82FD12C04483C4
:105A400055836683778381E01F910F9108950485C4
:105A5000158526853785400F511F621F731F82FFF2
:105A6000EECF0089118922893389872F401751078A
:105A70006207830B87FDE3CF85E298E193838283FE
:105A8000B901A801448355836683778381E01F9120
:105A90000F9108950895FC018081A481B58140850E
:105AA0005185628573859FB7F894813061F08230AB
:105AB00019F04C939FBF08954D935D936D937C9324
:105AC00013979FBF089511965C934E939FBF0895BF
:105AD000FC0185818F9384818F9380811F928F93A6
