:100000000C948B070C94B4070C94B4070C94B407AD
:100010000C94B4070C94B4070C94D03D0C94B40722
:100020000C94B4070C94B4070C94B4070C944D2EA4
:100030000C94B4070C94B4070C94B4070C94B40754
:100040000C94B4070C94B4070C94AB3D0C947E3D17
:100050000C94B4070C94B4070C94B4070C94B40734
:100060000C94B4070C94B4070400000000040400CE
:100070000000000400000000000000040000000078
:10008000000400020000040004000004070404004F
:10009000000404040000020200000002040700043F
:1000A000070704000404000004000202040404041E
:1000B0000400000400040404040404040004000216
:1000C0000304000404000400040000040004000011
:1000D00000000000000001020102CC00A82D020077
:1000E00001000000282A030001000000342A040057
:1000F00001000000372A0500010000007C2A0601EB
:1001000000019B0317120700010000008D12080177
:100110000001CB007112090001000000492D0A0204
:1001200001019603672D0B030103C8004A2D0C0241
:100130000102C6007C2D0D020002CC001C320E0212
:100140000002820321320F030003C8009432100220
:100150000002C600061811050005C100BC171202F6
:1001600000028203162913010001CB00F8271402B4
:100170000002C600E1101502000282036E10160490
:100180000004BD00091117050005B8008B10180107
:100190000001CB00C42719080008B00050281A033A
:1001A0000003AD0036281B02000282031D1F1C0243
:1001B0000002C600FB1D1D04000470037F1F1E010A
:1001C0000001CB00281E1F080008A500AB1D20025F
:1001D0000002C6003A1E210400038403C412220355
:1001E00000028703B914230300028703C9142404FF
:1001F00000047E03211325010001CB00BC1226035D
:100200000003A200EE12270500039F00AA2A28047B
:1002100000039C00822B2903000287038F2A2A04F3
:1002200000047E03DF2B2B010001CB007A2B2C0373
:100230000003990065212D0300038903FB1C2E0692
:1002400000069300751D2F020002820392253005DF
:1002500000058E00DD2031040004900339213202B4
:10026000000282031A21330400038B002A2534057F
:1002700000058600CB2535010001CB007430360423
:10028000000374031F31370500058100632438041F
:1002900000047E03243039030003A20056303A03E1
:1002A000000287036C313B0300028703FD313C06EB
:1002B00000067B008B313D0300028703FC383E03C0
:1002C0000002870318393F080008730034394006DC
:1002D00000067B00A239410500056E00B5384201D9
:1002E0000001CB00891543030003C800D81A44025B
:1002F0000002820337194506000668001E154603F2
:100300000003AD00601547010001CB00E53548034F
:100310000003C8004337490200028203C6354A037E
:10032000000287031A224B040004700329204C03A7
:100330000003AD00D21F4D010001CB0098214E03F8
:100340000003C80007234F020002820379215000F6
:1003500001000000723D5100050000001011121351
:100360001415222304000002040002040204000702
:100370000400000404020704000002040402040054
:100380000000040404040704070400020404040039
:10039000040400040401070400040200000000003B
:1003A0000000060002026D400374036C1F07640323
:1003B0006B400374036A0B026B036940036D0368AF
:1003C00040037403671C07770366140470036540D9
:1003D000037403641C0777036317047E03620A0235
:1003E0008203614002870360400384035F40028709
:1003F000035E400287035D100389035C11048C03D4
:100400005B110490035A0D029403590B019B03588E
:10041000400196035712049703560B019B03551096
:10042000029C035415039E03004002A103530E02D5
:10043000A303520901A50351060000000000230098
:10044000260029001E47004400450080011D480089
:100450004400450020010988008000810080000AD6
:100460008A008000810020000BB300B000B1008042
:10047000031BB400B000B100200378DAB5597B6FDC
:10048000DB4612FF2A5B01C15D0BC5102991927CEE
:10049000C81FB6EC1E82D6891BC74D814341D0E4EC
:1004A0004A5A98AF72493FAEF077BF999D7D9192BD
:1004B000D3E00E17201077777677761EBF79F8CFC6
:1004C000C95D2F8A3C79E0AD14752527A7935D9609
:1004D0009DB2BFFF73B3F99E45278B9319BB13558C
:1004E000DF8942E2EC875B76AE87DFB3F0248C4F86
:1004F000C25910CF82309A4C27595D966995C32115
:100500007F4ED2A2A8B3B4E3492D72C9B2BAAFBA32
:10051000776FB2C9E96A0A37761D5C95A4D93D8325
:100520005598F6D6174B8F20CF0D41534BF523AA84
:10053000776F7AD6F44591F40D6D58BB0D7FF4BCFE
:100540007DB6670203F748DD72D9259DC8EE258D7B
:10055000BA36AD6429BAC4DCCA4405EFD7F70383C1
:1005600059C1D33691FBBECBEBC76A721AE2D3AA4C
:10057000ADD801474FC57C11992B642312FA9C9C7E
:100580002EE78EAA4A8B7A9788CA72AFD89E9CCEE5
:10059000DD499A654341C3C4C9219A595235C9DB23
:1005A000E1610319444B4B9C8B9DE8D222A9FB6E61
:1005B000B4E1212D7A8EE39C6FD3BEE8123B51A6A5
:1005C0004F49DEB7690716A0F80CDC791CF4D9D5C1
:1005D000CDE0AC6C7079185BE27DBE582C5733438C
:1005E000DCCA44DFCDCD47BEB05F91FD8AEDD7D2E6
:1005F0007EF1227DB64A9B9CC64EBA22CC9811FA57
:10060000C24D174286F9E331CDC42B4B5436FD3A27
:100610008C2C837094D3DFDA5255BC6EC4132F46F2
:1006200002CCD32E4DA4F837C86CDF835774090A67
:10063000CE332CC9614A541EDB51640F6D1ECB238F
:100640004AC99EC1D8DC195A25FB7EAC249839D002
:10065000D2C2091E9E3B3E18FDAB130F3CD98BDD69
:100660005EBD70BEF2E9C14A77053F9417B36B498E
:10067000F7DC7092CDE026EB19C736EBA5A494BB4E
:10068000776F7E002898CF077B1F45B707312499E5
:10069000B44A9C3B6B93DD721D5AF564D67E64565A
:1006A000DCDB6F91DBCFE72A4B86A6C2B2324F0E5E
:1006B000AC67E6DDC09BC639130E136DD4B968CDA7
:1006C0002701822276547D21B97768E81ED6ED791C
:1006D0005BD6E0A7CD5189FACB9E501D535D99F5AD
:1006E000696B6DA37D4A0E9C9C7576122DAF132508
:1006F000270B7390D2B5280F2756383FE7773DD8A0
:1007000073DD4C4ED76604A7EC942D937E024BD636
:10071000F214F0B6CD798BF701F8B60406A1217872
:100720006C45C70F28D0688930984E78C9DB1DAF5B
:10073000B2E70451039880294290645F97FC009BC4
:10074000655A36BE03E8B145E6217603EB0EB5E8FF
:10075000B956C6ADD8ED788B8F90E81F084C91BB89
:100760005C4506E029EDB81550B8984EB602B01AAF
:100770005C3A2119B2ACCDC862A6931D78B3E213DE
:1007800084AC478A063447C3BE412D801F4E271ACA
:10079000F81209F725608116D7F19BE41C872332F4
:1007A00054812173EA884188084B659D8BED730263
:1007B000BAB667B55CB914D3E10938C055ED656BBD
:1007C000DA463A1CD2E35C52700D1A332254DB7BBA
:1007D000E923210C158E818CF017D5CB25D9FA226F
:1007E00074BB64BDED1ED396FBDBC13FAD4FE6A9E4
:1007F000F93C76521CD149DA96C6CF5FE0F3735EBE
:1008000075F078566FB770A1726A1B1761DDC0B3BF
:1008100012A3D56634F756FA26779AA6E461DF7BF1
:10082000D744A033328951443F9E3480CAC3D10695
:10083000654BBD03B1656009C6D1FFBF34F6D2195F
:10084000BB467F37820C66071BF73CBBF77286B945
:10085000E5619432580E9A1AF0647CBF17AE627349
:10086000C0309ABE26957839A41F0B25B6E78D02B5
:10087000EFAB625E8D361C88D9DE7810C25EC9F798
:10088000D0472162892DC9681999038E81F62B679B
:1008900078AA18688206102C0043724F11F15A5D35
:1008A000D2F363E998BDA3F6338520325B46898293
:1008B00025B7DA072FB1C41899AC0FA3CA098C8DDC
:1008C000C3EC95F3C1AF00B8031356390A24E133E2
:1008D000FDA9F613CA8DEF830D408534FE1B46B982
:1008E00024F03D3F20522F50898D3D7390E5C0A6E6
:1008F000983655FC49B300B1D7828168099E03221E
:1009000032F2F88B8C09A4024EED252F98E56F9DED
:100910000F38E75F6A3A0F3EBCD5B95D1D00244E23
:1009200069800468E61EBCC196D86D39868EA59094
:10093000B5C1C4B296E25856737068ACF978FD1D23
:1009400073B0024A98BE1677A2F590EA78D8895615
:1009500048A552A304631B40A6C044D33A5EB076B8
:10096000042AA2A2F552CC6536047B011976C09107
:100970003AB119885A21BF0D4C84DDA06ABD1B65B0
:10098000882E7BC403C024568EAEF31326DED4AD6E
:100990008ED6E4BD6A6C8D843F350254E2E7066B67
:1009A0007BD2E8153E11800D4592637EECF9C0E2E2
:1009B000C5246158FA9E5D6C92ABB3DF30B5C21CA2
:1009C000F1FCF626B97EFFE106110BCAEBEBF3C58D
:1009D000F4FA7C0EFFB164B68BDDA35ADC44D3EB92
:1009E000CD0216363F7FDCFC94FCF8E9F2177497D1
:1009F00099FA379D5C6D6E812AED4ABE4B8378056E
:100A000074D75FAEE8B2106B8D4F979BCBF7BF5E8C
:100A1000265FDE7FB8F8F805B516E2E4CDE5279845
:100A20002426782BD202AFBA984DAF2F0238025647
:100A3000DF9FFD9C9C9FDD5E6012178578D3CDE71C
:100A4000B3CF37C9CDEDD5CD2FB072738917C42F71
:100A50009850F590E2A92244D5F93A71C04FF58437
:100A600019D08049E3F8FA7C3639FDD76ABAFA1D05
:100A7000D8DCE037F8BD1A5CE000D22F35B80C6145
:100A8000005E17FEFE32F05FC89355232198CFE732
:100A900070EE7492CA68B658E62A07E80A1ECD823C
:100AA000F00ED8D2BB34134AC8C804060E8176D2E1
:100AB00042BE9B885C6B86290D6E298252F17A5664
:100AC000A0213E33930BE6846A9BB46255DD31B0BE
:100AD00048865ECD0088087D98322CF6B817F04D18
:100AE00006225903260E37116C9ABDBDE42A00B5C3
:100AF00001DBD62D0365FDC38C85C4D55CCDAB2948
:100B0000497E005BFFD6216A43A1B30386A07A48E1
:100B10003BA44E359B54D6517AAB892592A25D52A7
:100B2000124EB30AE0D5D1C029AF98A97CEC7E3033
:100B30008D0D756C5893B660188CB76DDDAAFCD618
:100B40002CB41CE28CEC54DFE6C714DE9BB3AE661B
:100B5000CA9DB10E575E484D9BF7140599696CB854
:100B60003E0B05234A4F0C956E15A9D4DACD011919
:100B7000B292961C2219555866B1AC1FB8E1866135
:100B8000118E6EE7966DC96E8B7482E583759D1923
:100B9000DAFBE71E032040466687358F99C5DADA0F
:100BA0003877B81CCCEB0424DB8B466F5C04430223
:100BB0005041DFB83749AADA0DC52005F14EC16CA6
:100BC000FE2A7D423B5D198152257D057974BAE389
:100BD0000C4A2C0818466170E49590684D1272C258
:100BE000BC2FB0C483CD185F99862E65F8FC81A315
:100BF0002630B4BEBE619FB6B932764D8D85E41500
:100C00008A5FA51C0CBEDA6D513F52CEF201AC3C9E
:100C100065F41C742FE5FB8BD102D83D2D60B5EA3D
:100C20002F88AAA1C84EAD1CB55421A76E7AA13059
:100C3000CE5A7FD3D63B106609ACA7F8B62D8446B2
:100C4000E01284CDD171B16DF689EB47A1B1A267F5
:100C5000C135286A50035A32D6323796E0403AEC12
:100C6000511405448C0CCE1BF45C2806BA9D5642E8
:100C70005FD98161E606BC9074A818400A51F6A5B8
:100C80009933CE815C99BE8AAAF0E030E5B70A8339
:100C9000FC5EE48D76E4AEAED93655AFA3976141E4
:100CA000FBD93729141910AA4E12F57F3E2B79E093
:100CB0004E089692AB02FDB6927D83019393532B1F
:100CC00024C5B6EA97B4CBF679BD23297E4735967D
:100CD0006AEC42E9D157F770302202F50BBD79E991
:100CE00016C032C947003224201D7A30846228623F
:100CF000A5D6AFEB821060D5550118F70007A47791
:100D000085812EFB7C2A7399CE10A85D3B2A974FD4
:100D1000D947004F08537718D4B7D82E91DF51EE3A
:100D2000A07AD1164775873AA71E88C4A2B3028459
:100D30002093C9601997300B03F0575DC70F679B6D
:100D40009FA85D651A362A99426916698BE104935A
:100D5000C7231903AA900C1EDB5F1A81C99D304F6F
:100D6000826875D022C27005717D1EACA248453FD5
:100D70003D8855F8A3411C297B80411C2FE17BFE57
:100D8000F2A2F2FA06E08253175E17AB7ED2271169
:100D900044AB8C8F4AE2B7683D478B5B5782E8C211
:100DA000C9A45594BEFBC7DDF5CA1FD5AEADD8D6D4
:100DB000F85B08AFD78E79FA5B8C5CB64A1E346557
:100DC000E8C86325CF7AEEDAFC831DA9570233B554
:100DD000A2DFA39AEDAAB27109E4CA363221A2EACF
:100DE0007E8E7AA16AFBE09C313595B703D4F98CED
:100DF000AF54A35255D65FE35AEFD01F89BBFD6DA8
:100E0000B876BD36093E695B67ABB56B550D4EDEF6
:100E1000D7507BEE0EEFF03B61209CC0757F1263D4
:100E2000002EA1A53189651DB9068B476A3B2D644B
:100E30001027488A9D222710364EA8B44C40CABAC3
:100E4000F8FF26235B5AF2FFB38D81BB9B1EC2B70E
:100E50003086D87EB4E7F03F71D61FE36CE635AA42
:100E6000B41D18E6FA2C538DB20CED17E8403B7E0A
:100E7000AF7685559A0B12A6AD745C31733F9BFE1D
:100E800026DD04FE0EAF62F337205D78ACCE3EB0B7
:100E90003BBF97E219E0DB703E2C6CFFCA60172A5B
:100EA000976F3B955CAF02CAECA5F332D997FA472E
:100EB000FE41CEB470A5EAA88EA556205408EBD901
:100EC0000873878A380A433D0552D20E160EA6BA19
:100ED0003D7C00D6B50442815FB13ABFCE525B3E45
:100EE0001FED5E7B9885251CB59A19FD29A7F70192
:100EF0002D02C8D77FBC85A2EE617612042733B0DD
:100F00009DF5DB5DBC48D7CBC53C98BCFC07DF4BEF
:100F10000E68980A000011241FBECFEFD4E0DEBF98
:100F2000CDBF14BE0FB6F894A8958091600088617B
:100F300080936000109260000FBE11E0A0E0B1E06D
:100F4000E2E5FDE702C005900D92AA32B107D9F79C
:100F500022E0AAE2B1E001C01D92A739B207E1F791
:100F60000E947A2F0C94A73E0C940000CF93DF933D
:100F7000CDB7DEB769970FB6F894DEBF0FBECDBF11
:100F80000E94672F6B017C019E012F5F3F4F19016B
:100F9000AE01475F5F4F5E874D87809126018823B2
:100FA00009F4F0C50E94672FC61AD70AE80AF90AA1
:100FB000F89480912601882351F08FEF80932601C9
:100FC00078940000F894809126018111F9CF7894EB
:100FD0000E94672FA7019601260F371F481F591F30
:100FE0002B8B3C8B4D8B5E8B81E080932601809117
:100FF0004901882309F43EC0109249018FEF89838B
:1010000068E27EE1C1010E9445298C01892B91F1A2
:10101000D80156968C9182FFF3CF0E94672FF894E7
:10102000F80137892689422F4B7F468B78949F930E
:101030008F937F936F931F923F9321701F922F93F3
:1010400089811F928F932BEF33E03F932F930E9460
:10105000E1336DB77EB7645F7F4F0FB6F8947EBF04
:101060000FBE6DBF68E27EE1C1010E9445298C017F
:10107000892B71F680914A018823F9F010924A0178
:101080008FEF89836AE37EE1C1010E944529FC015B
:10109000892B99F0958D868D9813F4CFF894858DD2
:1010A000968D891709F457C678946AE37EE1C101E9
:1010B0000E944529FC01892B69F780914C01882306
:1010C000F9F010924C018FEF898307EE13E06AE18B
:1010D00071E2C1010E944529009791F0DC01589608
:1010E0002C912F3FA1F7F894FC0126852111F1C422
:1010F00078946AE171E2C1010E944529009771F775
:1011000080914E018823D9F110924E018FEF89838F
:1011100002EE13E06BEC75E2C1010E9445290097D5
:1011200071F1DC011E962C911E9723FFF3CFF894EA
:10113000FC012685277F268778949C01265E3F4FF9
:101140003F932F9350968C918695869586951F9206
:101150008F9389811F928F931F930F930E94E13386
:10116000EDB7FEB738960FB6F894FEBF0FBEEDBFD1
:101170006BEC75E2C1010E944529009791F68091C0
:101180005901882309F446C0109259018FEF8983D1
:1011900008ED13E066E570E3C1010E944529FC01FA
:1011A000892BC1F1848D80FFF5CFF894948125813E
:1011B00036814781548965897689A789B08DF18CFC
:1011C000E28CD38C848D8E7F848F7894DF92EF9223
:1011D000FF92BF93AF937F936F935F934F933F9330
:1011E0002F939F9389811F928F931F930F930E9438
:1011F000E1332DB73EB7205F3F4F0FB6F8943EBFA7
:101200000FBE2DBF66E570E3C1010E944529FC01B8
:10121000892B41F6809146018823B9F1109246014D
:101220008FEF8B87AE01455F5F4F2A01F2E0DF2E23
:10123000AEE2EA2EB0ECFB2E67E379E1C2010E9438
:1012400045298C01892B09F1D80152968C9182FF96
:10125000F3CF80FF87C1C8010E94B43AF801D28A57
:10126000148AE982FA82910142E060E084859585E2
:101270000E94BF13C8010E94281A67E379E1C201E6
:101280000E9445298C01892BF9F68091450188231C
:1012900009F450C0109245018FEF8B879E01255FA6
:1012A0003F4F290160E675E1C2010E9445295C01BA
:1012B000892B09F43FC0D50159968C91599780FF2D
:1012C000F1CFF894F5016480758086809780818DD8
:1012D0008E7F818F789458968C91813009F499C3D0
:1012E00008F479C3823009F439C38330D9F6CB844A
:1012F00019821A82910142E061E0F50184899589A1
:101300000E94BF1309811A81102701271027F02F8F
:10131000F670EF2E20E030E0B401A301C5010E9479
:10132000EB1560E675E1C2010E9445295C01892B3D
:1013300009F0C1CF80915B018823B1F110925B016C
:101340008FEF8B879E01255F3F4F290152E0D52EFD
:101350006DE2E62E78E0F72E66EC75E3C2010E949E
:1013600045298C01892B01F1D80152968C9182FF7D
:10137000F3CF80FFF2C0C8010E94B43AF801D28ACC
:10138000E982FA82910142E060E0848595850E94BD
:10139000BF13C8010E946C3666EC75E3C2010E945F
:1013A00045298C01892B01F780914B01882309F491
:1013B0005EC010924B018FEF8B879E01255F3F4FE0
:1013C000290177247A9462ED7FE1C2010E944529C8
:1013D0008C01892B09F44BC0D80150968C9182FF67
:1013E000F2CFF894F80184809580A680B780F488C5
:1013F000108A148A789480859185A285B385881A8D
:10140000990AAA0ABB0AD801FF2091F052968C9142
:10141000F801E80FF11D758A168A178A8D5FF801A9
:10142000828B8E3208F093C0FA94D801F110EECF7F
:1014300051968C91882309F432C2813009F415C386
:10144000823009F434C4D80152968C9190E08E9782
:101450000CF4B9CF6B85C8010E94032062ED7FE1D7
:10146000C2010E9445298C01892B09F0B5CF8091DA
:101470004D01882309F4C3C010924D018FEF8C8772
:1014800030E3632E42E0742E53E2952E6AE6C62EB8
:1014900074E0872EE0E44E2E69E771E2CE010C96EF
:1014A0000E9445297C01892B09F4A9C0F70186898E
:1014B00082FFF2CF80FF5BC0C7010E94B43AD70120
:1014C00056967C92569799821A821C96ED91FC91C1
:1014D0001D97A10162E080810E94FD16C9828A8267
:1014E000D7011C96ED91FC911D97A10162E08081CE
:1014F0000E94FD16C9824A82D7011C96ED91FC918B
:101500001D97A10162E080810E94FD16BAE3BB87AE
:10151000D7011C96ED91FC911D97810121E0AE0150
:10152000455F5F4F61E080810E9473169982B8E049
:10153000BA83D7011C96ED91FC911D97A10162E041
:1015400080810E94FD16C7010E94C222A5CF6B8533
:10155000C8010E940320FA9468CF6B85C8010E94DD
:101560008B36FACE6B85C8010E94471A65CE5C8423
:10157000F7010789D62CD01AAD2CB12C8489958916
:101580008A159B0508F4C4C2B4E7B98310E0085E6D
:101590001F4F0E0D1F1DD7011C96ED91FC911D973D
:1015A0002D2DA10161E080810E947316F7018789CA
:1015B000D80ED78A848995898A199B09958B848B43
:1015C000652DC7010E94E122D70154968D919C910F
:1015D0005597A816B90608F4FCC2F701868981FF61
:1015E0005BCFC7010E94B43AD70156968C915697AB
:1015F0008B7F56968C93C7010E94C2224DCFA8952F
:1016000080917301882329F080E480936000109218
:10161000730110913402112309F46DC000912A0165
:1016200000FD12C0153008F466C0B0907401CB2CD8
:101630008BEF8B0D8C3308F4D2C2EEE7CE1609F493
:101640003FC4016000932A01412F50E06EE770E033
:1016500084E791E00E94783E009739F00E7F009376
:101660002A018457914011E0180F01FD0CC0902F02
:10167000926090932A0187E593E09F938F930E9455
:10168000E1330F900F90B12EDD24DA9480E0EB2C43
:10169000F12C18C090E0402F50E0481B590BB701C7
:1016A000680F791F6C587E4F8C589E4F0E948E3E5B
:1016B00010922601802F9FB7F894209134021217C0
:1016C00061F09FBF10913402012F0B1919F79FB7DA
:1016D000F894209134021213F4CF009334029FBF88
:1016E000F1E0DF1208C087E593E09F938F930E949B
:1016F000E1330F900F900E94672F6B017C012B89C3
:101700003C894D895E89621B730B840B950B80901D
:10171000330190903401A0903501B09036013FEF35
:10172000831A930AA30AB30A809233019092340178
:10173000A0923501B092360140902F0150903001B7
:101740006090310170903201460E571E681E791E5E
:1017500040922F015092300160923101709232011B
:101760006115710541E08407910508F010C29B01E5
:10177000AC010E94DB3DDC01CB0181509F4FAF4F9C
:10178000BF4F892F9A2FAB2FBB2740912B01509130
:101790002C0160912D0170912E01840F951FA61FC1
:1017A000B71F84179507A607B70718F48FEF9FEFA9
:1017B000DC0180932B0190932C01A0932D01B09319
:1017C0002E01409153015091540160915501709147
:1017D00056015C546B437B4F2F2DC416D506E6068D
:1017E000270B27FDDACBBF93AF939F938F937F9205
:1017F0006F925F924F92BF92AF929F928F9283E2CD
:1018000094E09F938F930E94E1336DB77EB7625F40
:101810007F4F0FB6F8947EBF0FBE6DBF809153010E
:1018200090915401A0915501B0915601C816D90666
:10183000EA06FB0698F480914F0190915001A09127
:101840005101B09152010196A11DB11D80934F012C
:1018500090935001A0935101B0935201C092530153
:10186000D0925401E0925501F092560110922B0152
:1018700010922C0110922D0110922E0110922F0126
:101880001092300110923101109232011092330106
:101890001092340110923501109236017ECB82E312
:1018A00089831A820E94672F6B017C01910142E0BB
:1018B00061E0F801848595850E94BF130E94672F1F
:1018C000DC01CB018C199D09AE09BF09813293401F
:1018D000A105B10508F0EFC0998197FD4AC1C8186C
:1018E000D908EA08FB08D80153968C918823C1F0E7
:1018F0002FEF280F41E050E002C0440F551F2A95FA
:10190000E2F7052E000C660B770BC40ED51EE61E03
:10191000F71E04C0F694E794D794C7948A95D2F73B
:10192000BFEFCB16D104E104F10408F086C12A818F
:1019300030E0220F331F892F90E0982F8827990FCE
:10194000822B932BF8012289E20FF11DC58A868B29
:10195000978B2D5FD80152962C9375CDCB8481E067
:1019600089831A821B821C82910143E061E0848991
:1019700095890E94BF1369817A818B819C810E9425
:101980000D3EBB27A92F982F872F9C01AD0144271F
:1019900055272F87388B498B5A8B37E039831A822A
:1019A000910142E061E0D50154968D919C9155974B
:1019B0000E94BF138A81982F9C7F8F858170E92EAA
:1019C000E82A0F85188929893A89B401A301C5013C
:1019D0000E94EB1567CCCB8419821A821B821C8271
:1019E000910144E061E0F501848995890E94BF136B
:1019F00069817A818B819C810E940D3EF62FF77060
:101A0000EF2E8B019C01B401A301C5010E94EB15CF
:101A100049CC2B852F873CE039831A821B821C829C
:101A2000910144E061E0848995890E94BF13698136
:101A30007A818B819C810E940D3E6B017C01BFE00D
:101A4000B9831A82910142E061E0F50184899589A8
:101A50000E94BF13970186013327CF84EA80B40127
:101A6000A301C5010E94EB151DCC8FE789838EEF82
:101A70008A830E94672F6F87788B898B9A8B91015D
:101A800042E060E0F801848595850E94BF130E94C2
:101A9000672F6B017C01DC01CB012F8538894989D7
:101AA0005A89821B930BA40BB50B81329340A1057D
:101AB000B10508F4CFC0D80152968C91F801E80F17
:101AC000F11D758A92E0968B178A8D5FF801828BE3
:101AD000BACC318D308F7894AC01415F5F4F5F930A
:101AE0004F931F922F93FC0187891F928F938981B7
:101AF0001F928F931F930F930E94E1332DB73EB730
:101B0000265F3F4F0FB6F8943EBF0FBE2DBFDFCA12
:101B1000B7016E5E7F4F848595850E949C2F9C0146
:101B2000ABEABAEA0E94143E9695879596958795FA
:101B30009C01220F331F820F931F880F991FD7011B
:101B400055969C938E9354978A159B0508F441CD26
:101B500057960C9119CD2D853E85E217F30709F0B4
:101B6000EAC0809590E02A8530E08217930709F457
:101B700013C1D80152968C91F801E80FF11D758AB6
:101B800093E0A1CFCB8ADC8AED8AFE8A2DCA61154B
:101B9000710550E18507910508F008CE8B019C0185
:101BA00001501F4F2F4F3F4F5527432F322F212FCB
:101BB0000E94DB3DDC01CB0140912B0150912C01B7
:101BC00060912D0170912E01840F951FA61FB71FE4
:101BD000E8CD10922601B1E0B0934D015DCCD090DC
:101BE00075018D2D807F803109F027CD1B1508F4FC
:101BF00082CD8B2D90E0FC01ED58FE4F20812E37D9
:101C000009F01BCDFC01EF58FE4F4F01FC01EE58CF
:101C1000FE4F9081D4018C91292F30E07901F82A70
:101C20006DEF6B0D84E791E00E947D2FE816F906B9
:101C300009F448C1C090740100CDF8018289E80F11
:101C4000F11D758A91E0968B178A8D5FD8015296A7
:101C50008C93F9CB80EC89831A82910142E061E098
:101C6000D8011C968D919C911D970E94BF134981AC
:101C70002A81942F9227892F82958F709827892FF8
:101C8000869586958927982F9695892780FD98C0F7
:101C900046FFA6C0F8018289E80FF11D758A25E08C
:101CA000268B178A8D5FD80152968C93CCCBD801A6
:101CB0001C96ED91FC911D976480B281BF872381B2
:101CC0002F8B40E06B2F722F862D0E9497170E945A
:101CD000672F6B017C0130E1C30ED11CE11CF11CAC
:101CE0000E94672F2F2DC616D706E806290B27FF5F
:101CF000F7CFF89441E06F857F89862D0E94971772
:101D00000E94672F6B017C017894D101EAE01D925B
:101D1000EA95E9F7F4E8F98323E22A8391014AE09E
:101D200061E0D8011C968D919C911D970E94BF1374
:101D3000FE01339685E09191892728E030E005C0C7
:101D4000880F2150310909F406CF87FFF9CF880F9A
:101D5000BDE18B27F6CF5489658990892189328925
:101D600043898F5F858F78946F935F934F933F93F1
:101D70002F939F9389811F928F9386EF93E09F9378
:101D80008F930E94E133EDB7FEB73A960FB6F89401
:101D9000FEBF0FBEEDBF76C9898584FF18C08B8159
:101DA00087FD60C0D80152968C91F801E80FF11DB3
:101DB000758AB4E0B68B178A8D5FF801828B43CBAE
:101DC000F8018289E80FF11D758A93E03CCFD801B4
:101DD00052968C91F801E80FF11D758AB5E0EACFB3
:101DE000C818D908EA08FB08F80133893323C9F079
:101DF0008FEF830F61E070E002C0660F771F8A9556
:101E0000E2F7CB01092E000CAA0BBB0BC80ED91EA2
:101E1000EA1EFB1E04C0F694E794D794C7943A9543
:101E2000D2F77FEFC716D104E104F10408F03FC0F8
:101E3000842F90E0AC01542F4427550F550FF4E048
:101E40002F9FC0011124842B952BD80152962C91E1
:101E5000F801E20FF11DC58A868B978B2D5FF80183
:101E6000228BF1CAC818D908EA08FB08F1E5CF1699
:101E7000F5E5DF06E104F104D0F42C8130E0220F17
:101E8000331F90E0982F8827990F822B932BD8012E
:101E900052963C91F801E30FF11D2F8126952F7387
:101EA000258B868B978B3D5FF801328BCCCAD8018E
:101EB00052968C91F801E80FF11D758A91E003CEDE
:101EC00011E0E1CB802F8D7F80932A018091090161
:101ED000D81202C181E08D0D8F708061809309015D
:101EE000B6E78B16B1E09B0609F008F4BEC0E6E742
:101EF000F1E0B98ECDB6DEB68F010F5F1F4F2081A6
:101F0000222309F4E6C0E6E5F3E08491281708F0FF
:101F1000E0C030E0220F331F220F331F220F331F88
:101F2000F901E153FF4FE4914DB75EB764E0E69FDE
:101F30004019510911240FB6F8945EBF0FBE4DBF72
:101F40008DB79EB70196F901EF52FF4F4491F90109
:101F5000EE52FF4F65917491FB01640F711DAC014E
:101F6000D88ACF86988F8F8B6E177F0709F482C02F
:101F70008016910608F46EC0A491A53028F1A73010
:101F800009F068C02801BFEF4B1A5B0AD801AC907A
:101F900082010A0D111D8016910608F45BC0B12C58
:101FA000C12CD12CDA01AD92BD92CD92DC92139767
:101FB000612C712C14964D925D926D927C921797C4
:101FC000485F5F4F3196D0CF7A0184E0E80EF11C74
:101FD00068019FEFC91AD90AD8011C91912F9F77E8
:101FE000492E512C612C712C012F00760036A9F15D
:101FF00017FF3EC086010F5F1F4FD80111978C91CC
:10200000440C551C661C771C440C551C661C771C24
:10201000440C551C661C771C440C551C661C771C14
:10202000440C551C661C771C440C551C661C771C04
:10203000440C551C661C771C982F9F77492A87FDF6
:10204000DACFDA014D925D926D927C921397A701DF
:1020500031968ACF87E00E946B3DB0EE4B2A552423
:102060005A94652C762CC4CFB98CDD24D3940ECB36
:102070008601E7CFCF84D8888F89988D409127013A
:10208000442331F0F901E053FF4FE491E0FF11C028
:102090002C523F4FF90125913491F90109950FB662
:1020A000F894DEBE0FBECDBE08151905E8F6F8019E
:1020B00021CF809128011F928F93E2E3F4E0FF93F8
:1020C000EF930E94E1330FB6F894DEBE0FBECDBE93
:1020D000EBCF85E00E946B3D1B2DCDCACF93DF93E4
:1020E000EC016BE870E188810E949829FC018C81E9
:1020F0009D81AE81BF81892B8A2B8B2B51F420E0EF
:10210000F89494A59D7F922B94A77894DF91CF911A
:10211000089522E0F5CF0F931F93CF93DF938C01A7
:102120004DE250E06BE870E1FC0180810E9469297A
:10213000EC01F801848518160CF041C064E06CA72E
:10214000F80184810E94192E6A8F7B8F8C8F60E04A
:10215000F80180850E94192E6D8F7E8F8F8F80E011
:1021600090E0A0E0B0EC88A399A3AAA3BBA3F801D8
:1021700080899189A289B3898E8B9F8BA88FB98F13
:102180006BE070E0CE0184960E94FA298E899F89C7
:10219000A88DB98D8997A105B10548F085E991E130
:1021A0009B838A83DF91CF911F910F9108958CA516
:1021B00080618CA7DF91CF911F910F91089560E00E
:1021C000BECFCF93DF93EC016BE870E188810E9472
:1021D0009829FC018C819D81AE81BF81F894468550
:1021E000578560897189452B462B472B79F4848369
:1021F0009583A683B783828B938BA48BB58B84A5A1
:10220000877F84A77894DF91CF91089586E10E941B
:102210006B3D0F931F93CF93DF938C016BE870E1BD
:10222000DC018C910E949829EC010E94142AFC0187
:10223000D80114964D915D916D917C9117974283D1
:1022400053836483758318968D919C911997918718
:102250008087892B09F466C0D8011C968D919C91CA
:102260001D97978386831286F8948CA5282F21705A
:1022700081FB992790F9291729F091E08927928508
:10228000916092874E855F8568897989452B462BB9
:10229000472B59F583FD19C08CA7118210828CA1A0
:1022A0009DA1892BA9F1AEA1BFA1ED93FC93FFA342
:1022B000EEA3CE010E940D33CE010E94063B78941E
:1022C000DF91CF911F910F910895809147019091D7
:1022D000480191838083F0934801E093470178940B
:1022E000DF91CF911F910F9108958CA711821082D9
:1022F0008CA19DA1892B89F0AEA1BFA1ED93FC9388
:10230000FFA3EEA37894DF91CF911F910F910895D1
:10231000FFA3EEA3FDA3ECA3CCCFFFA3EEA3FDA3ED
:10232000ECA3CDCF87E10E946B3DCF92DF92EF927D
:10233000FF920F931F93CF93DF93EC01EA8DFB8DF8
:102340008C8D80830E94672F0E891F89288D398D7F
:102350006B017C01C00ED11EE21EF31E8E859F858F
:10236000A889B9890197A109B1098E879F87A88B90
:10237000B98B80FF0EC0CC82DD82EE82FF8281E0CD
:10238000DF91CF911F910F91FF90EF90DF90CF9051
:102390000895892B8A2B8B2B59F1488559856A859D
:1023A0007B858A899B89AC89BD89840F951FA61F6F
:1023B000B71F8A8B9B8BAC8BBD8B0C851D85012E2B
:1023C000000C220B330B400F511F621F731F4887F5
:1023D00059876A877B872B2F8C159D05AE052F09A2
:1023E00027FDC9CF8C839D83AE83BF8381E0C8CF97
:1023F000CE010E940D33811102C080E0C1CF4C811B
:102400005D816E817F81972F4C155D056E059F095B
:1024100097FFB6CF4C195D096E097F094038514CC2
:102420006F4F7F4F0CF0A7CF88E10E946B3D0F9359
:102430001F93CF93DF938C0180913F0190914001D6
:10244000892B09F04BC060913E0170E0623071054C
:102450002CF482E080933E0162E070E0E0913A016A
:10246000F0913B014DB75EB741505F4F44275A95FD
:102470009F01C0E0D0E0C901860F971F4817590798
:1024800030F121969C01C115A4E0DA07A1F78E1B5B
:102490009F0B0E94BE33D0934001C0933F019093A5
:1024A0003D0180933C010E94B029F8018081918117
:1024B000A281B3818093410190934201A093430193
:1024C000B0934401DF91CF911F910F910895209710
:1024D00011F0C901DCCF80E10E946B3D8DE00E94CC
:1024E0006B3DCF932091380130913901232B91F42A
:1024F000FC01C0818C2F90E0880F991F880F991FD5
:102500000E94BE339093390180933801C093370104
:10251000CF9108958AE00E946B3D80913F01909198
:1025200040019F938F9321E030912701311101C029
:1025300020E01F922F93209144012F93209143017B
:102540002F93209142012F93209141012F9321E05D
:10255000892B09F420E01F922F9384E194E09F934C
:102560008F930E94E1338DB79EB70C960FB6F89407
:102570009EBF0FBE8DBF089546E050E06EEE72E143
:10258000FC0180810C946929CF92DF92FF920F9316
:102590001F93CF93DF93EC016EEE72E18C810E946A
:1025A00098296C01F8840F2D10E0A8014D5F5F4F52
:1025B00064EC72E188810E946929FC01D182C082A9
:1025C000F2826C857D85A8010396DF91CF911F91E2
:1025D0000F91FF90DF90CF900C94853EFF920F9368
:1025E0001F93CF93DF938C0146E050E06EEE72E1D3
:1025F000FC0180810E946929EC01F801F08461E00E
:10260000F11060E0F80184810E94192E6A837B83B7
:102610008C838D81F11009C091E0892B8D83DF912E
:10262000CF911F910F91FF90089599E0892B8D8391
:10263000DF91CF911F910F91FF9008958BE10E9440
:102640006B3D8F929F92AF92BF92FF920F931F9319
:10265000CF93DF93EC016EEE72E188810E9498299E
:102660008C01F88483E08F1508F484C0F80185811B
:10267000867009F07FC08C849D84AE84BF848C8179
:102680009D81AE81BF81892B8A2B8B2B09F074C071
:10269000EEE3F4E0A591B49111968C9182FD04C013
:1026A00060E08AE00E94192E60E08DE00E94192E01
:1026B00060E08BE00E94192E60E08CE00E945E17C3
:1026C00080E58CBD1DBC8114F2E19F06FAE7AF06E0
:1026D000B10408F041C0811489E098068DE3A80692
:1026E000B10418F5E0E88E16E4E89E06EEE1AE06C9
:1026F000B104C0F5F0E48F16F2E49F06FFE0AF06E8
:10270000B10468F580E2881681EA980687E0A80699
:10271000B10458F590E0E0E98E16E0ED9E06E3E0A6
:10272000AE06B10428F583E002C090E080E0CF2D32
:10273000CC0FCC0FC065C82BF801C0839183858175
:1027400084608583DF91CF911F910F91FF90BF909F
:10275000AF909F908F90089591E080E0E8CF90E057
:1027600081E0E5CF91E081E0E2CF91E082E0DFCF50
:1027700082E0DDCF0E941E138EE20E946B3D6F92BD
:102780007F928F929F92AF92BF92CF92DF92EF9201
:10279000FF920F931F93CF93DF934C01E62E142FDC
:1027A0006901DC0115967C901597872D867009F4D8
:1027B00051C071FC39C0F401908181819CBD8DBDF7
:1027C000F72DF1706F2E70FCC8C0EE2009F49CC08C
:1027D0008FEF810F112351F0F60190819EBD0DB452
:1027E00007FEFDCF9EB591938150B8F7662091F119
:1027F000072D069506950695402F40954170D4010A
:1028000012966D917D918C91DF91CF911F910F91D7
:10281000FF90EF90DF90CF90BF90AF909F908F9000
:102820007F906F900C949717ED91FC9141854270C9
:102830006681778180850E949717B72DB1706B2EC6
:1028400070FC17C0D401CD91DC91AA24AA94A10EEA
:10285000111126C0DF91CF911F910F91FF90EF9042
:10286000DF90CF90BF90AF909F908F907F906F90B0
:102870000895072D069506950695402F4170F401A1
:102880006281738184810E949717D401CD91DC917C
:10289000AA24AA94A10E112309F4AECF662463944E
:1028A000B12C8FEFA81AB80AAC0CBD1CD601FC9055
:1028B00008E010E0898580FF35C0EE81FF818885C2
:1028C00080834F2D40786B817C818D810E9497178A
:1028D000FF0CEE81FF8188858083110FE881F981EB
:1028E00090818A81892391E009F490E0192B0150AD
:1028F00009F7EE2011F0F6011083FFEFCF1ADF0A7F
:10290000AC14BD0499F672CFF6019601210F311D6A
:102910002E173F0709F46ACF81918EBD0DB407FED3
:10292000FDCFF6CF4F2D40786B817C818D810E9449
:102930009717FF0CEE81FF8188858083110FE88156
:10294000F98190818A81892391E009F490E0192B23
:10295000EE81FF8188858083CACF73FA442740F9CE
:10296000F4016281738184810E94971766246394C5
:102970002CCFCF93DF93EC016EEE72E188810E9441
:102980009829288539854C8160E0DF91CF910C949E
:10299000BF13FF920F931F93CF93DF93EC01188126
:1029A0006EEE72E1812F0E9498290C81F884C9850E
:1029B0002F2D3C2F402F61E00E94BF13CF93FF9239
:1029C0001F920F931F921F9381EF93E09F938F931A
:1029D0000E94E1338DB79EB708960FB6F8949EBF5C
:1029E0000FBE8DBFDF91CF911F910F91FF90089582
:1029F000FC0192899460928B1092260181E0809371
:102A00005B0180E00895FC011092260181E0809333
:102A10004501818D8160818F4481558166817781F7
:102A200080859185A285B385840F951FA61FB71F4A
:102A300084839583A683B78381E008950F931F93C2
:102A4000CF93DF938C0160E675E1FC0180810E94E9
:102A50009829EC010E94B43AF80184819581A681FD
:102A6000B7818C839D83AE83BF8380859185A2854A
:102A7000B38588879987AA87BB87892B8A2B8B2B5D
:102A800029F4DF91CF911F910F9108958485958549
:102A9000A685B7858C879D87AE87BF8780899189FA
:102AA000A289B389888B998BAA8BBB8B84898E8BE7
:102AB0001F8ACE01DF91CF911F910F910C94063B9D
:102AC000FF920F931F93CF93DF93EC01F88483E081
:102AD0008F15E0F04AE150E060E675E188810E94E0
:102AE00069298C0183E095E1F801938382836EEE7E
:102AF00072E18C810E949829F801958B848BF08E6D
:102B0000DF91CF911F910F91FF90089587E20E946E
:102B10006B3D8F929F92AF92BF92EF92FF920F9375
:102B20001F93CF93DF9300D0CDB7DEB77C0167E36F
:102B300079E1FC0180810E9498298C018FEA8983C8
:102B40001A820E94672F4B015C019E012F5F3F4F4D
:102B500042E061E0F801848595850E94BF130E94E0
:102B6000672FF80121892F9320892F932A812F71B4
:102B70001F922F9323891F922F9327852F932685AA
:102B80002F93DC01CB0188199909AA09BB09BF93CE
:102B9000AF939F938F93BF92AF929F928F92F701C3
:102BA00080811F928F9383ED93E09F938F930E9478
:102BB000E1330FB6F894DEBF0FBECDBF0F900F907C
:102BC000DF91CF911F910F91FF90EF90BF90AF9049
:102BD0009F908F9008958F929F92AF92BF92CF92C5
:102BE000EF920F931F93CF93DF93EC0148015901AC
:102BF0001F92EF92BF92AF929F920F937F936F932A
:102C00005F934F931F92CF9289EC93E09F938F93A2
:102C10000E94E1338DB79EB70E960FB6F8949EBF13
:102C20000FBE8DBFE11009C08C859D85AE85BF8527
:102C300088169906AA06BB0688F48F898F5F8F8B4A
:102C40009E898917B0F4DF91CF911F910F91EF907A
:102C5000CF90BF90AF909F908F9008958889998969
:102C6000AA89BB8988159905AA05BB0530F31F8A77
:102C7000EACF809127018111FACF86E20E946B3D55
:102C8000CF92DF92EF92FF926B017C0109C00E940C
:102C9000672F292F6C157D058E052F0927FF09C089
:102CA0008091BC0087FFF3CFFF90EF90DF90CF9033
:102CB000089580E30E946B3D24EA2093BC000E94AB
:102CC00040168091B90090E0A0E0B0E0803191051D
:102CD000A105B10521F00897A105B10509F40895F2
:102CE0008FE20E946B3D7F928F929F92AF92BF9234
:102CF000CF92DF92EF92FF920F931F93CF93DF93C8
:102D0000782EC62F942EB52E822E0E94672F6B012F
:102D10007C0120E8C20E28E3D21E21E0E21EF11C55
:102D2000C701B6010E945C167092BB0084E88093D4
:102D3000BC00C701B6010E944016AA24AA94AC0E9A
:102D4000CC23B1F0C92DDB2DB12C8FEFA81AB80A16
:102D5000AC0EBD1E94E8992E89918093BB00909291
:102D6000BC00C701B6010E944016AC16BD06A1F713
:102D7000C701B6010E945C16872D81608093BB005D
:102D800084E88093BC00C701B6010E944016DFEFC3
:102D9000D80D882009F15801CD2F84EC982ECC2332
:102DA00069F09092BC00C701B6010E944016809164
:102DB000BB00F50181935F01C15099F7F801ED0F58
:102DC000F11DEF0184E88093BC00C701B6010E94A9
:102DD00040168091BB00888384E98093BC00DF911A
:102DE000CF911F910F91FF90EF90DF90CF90BF9008
:102DF000AF909F908F907F900895BF92CF92DF9277
:102E0000EF92FF920F931F93CF93DF93D82FC62F8C
:102E1000B42E152F0E94672F6B017C0120E8C20E93
:102E200028E3D21E21E0E21EF11CC701B6010E9478
:102E30005C16D093BB0084E88093BC00C701B60148
:102E40000E9440160FEF0C0FCC23A9F0CB2DD12FF1
:102E500010E00F5F1F4F0C0F1D1F84E8B82E8991E3
:102E60008093BB00B092BC00C701B6010E9440161F
:102E7000C017D107A1F784E98093BC00DF91CF91FF
:102E80001F910F91FF90EF90DF90CF90BF9008952A
:102E9000FB012FB7F8949281141644F4982B809577
:102EA00092839181892381832FBF089580959823F0
:102EB00092839181892381832FBF08958032A0F569
:102EC00067FD32C0E82FE695E695E695F0E0EE0F57
:102ED000FF1FE45CFB4FA591B491109729F1877017
:102EE00021E030E0A90102C0440F551F8A95E2F7A6
:102EF000CA014FB7F89412963C911297662381F05D
:102F0000382B282F209512963C93129711963C91BE
:102F10001197232311962C9311974FBFBD0108954C
:102F2000282F20953223EFCF8BE20E946B3DFB01CF
:102F30002FB7F8949281411105C08095892382832F
:102F40002FBF0895892B82832FBF0895FB012FB7D0
:102F5000F8949281411109C0382F309593239283C0
:102F60009181892B81832FBF0895982B9283918122
:102F7000892B81832FBF0895CF92DF92EF92CF9359
:102F8000DF93EC0161E088859985AA85BB85892B53
:102F90008A2B8B2B09F460E08C810E94192E6B0127
:102FA000E82E44E250E06CEB77E188810E946929C9
:102FB000FC01C48AD58AE68A21E0488559856A855C
:102FC0007B85452B462B472B09F420E04C855D85FE
:102FD0006E857F85452B462B472BB1F430E0232BA4
:102FE000FC0123A3488959896A897B89478B508FC3
:102FF000618F728F6AE070E04F96DF91CF91EF9012
:10300000DF90CF900C94FA2930E1E9CFCF93DF9392
:10301000EC016CEB77E188810E949829F894FC011F
:10302000278D30A1232B69F44C815D816E817F81D6
:10303000FC01438F548F658F768F7894DF91CF9109
:10304000089584E10E946B3D8F929F92AF92BF9250
:10305000CF92DF92EF92FF921F93CF93DF93EC0119
:10306000EF8CF8A0E114F10409F4F0C0F7018081BD
:10307000918198A38F8F86809780A084B18411E07E
:1030800081149104A104B10409F4A1C06C897D8963
:103090008E89412F0E949717809147019091480196
:1030A000F70191838083F0924801E09247018114F7
:1030B0009104A104B104E9F08B8D9C8DAD8DBE8D82
:1030C00088169906AA06BB06A0F44F89588D698D0B
:1030D0007A8D411551056105710509F45BC08C813C
:1030E0009D81AE81BF81480F591F6A1F7B1F1660EB
:1030F00022C08BA131E081149104A104B10409F034
:1031000068C084FB992790F921E09227391709F4C8
:1031100043C04F89588D698D7A8D411551056105E0
:103120007105D1F18C819D81AE81BF81480F591FFE
:103130006A1F7B1F1460EF8DF8A1309709F077C0EC
:103140002BA1488B598B6A8B7B8B2071212B2BA356
:1031500011FF5FC0880D991DAA1DBB1D12FD52C035
:1031600023E03DE23B832A838C839D83AE83BF8330
:1031700088869986AA86BB868B8D9C8DAD8DBE8DEB
:1031800088199909AA09BB098C879D87AE87BF87D3
:1031900081E011C012608BA1EF8DF8A13097D9F4B6
:1031A000188A198A1A8A1B8A8071812B8BA3812F16
:1031B000827011FD34C0DF91CF911F91FF90EF908D
:1031C000DF90CF90BF90AF909F908F90089510E0C8
:1031D0005DCF30E096CF4281538164817581488B09
:1031E000598B6A8B7B8B8071912F9460892B8BA379
:1031F00011FF0FC08C819D81AE81BF81880D991D0B
:10320000AA1DBB1D2B2F84179507A607270B27FD8B
:10321000A7CF4C835D836E837F8381E0CCCF40E07A
:1032200050E0BA018C819D81AE81BF8193CFC28075
:10323000D380E480F580872F4C155D056E058F09DE
:1032400087FD07C08BA1B701A601C9CF85E10E9408
:103250006B3D83E10E946B3DFC0192899460928BEF
:103260001092260181E08093460180E008950F933B
:103270001F93CF93DF938C0145E450E067E379E13E
:10328000FC0180810E946929EC018CE299E19B8319
:103290008A836EEE72E1F80184810E9498299D87ED
:1032A0008C87DF91CF911F910F910895CF93DF937A
:1032B000EC0145969F938F938B891F928F938F85F7
:1032C0008F938E858F931F926F938EEC93E09F93D5
:1032D0008F930E94E1331B8A8E859F8501969F877D
:1032E0008E878DB79EB70A960FB6F8949EBF0FBE15
:1032F0008DBFDF91CF910895CF93DF93EC016B8168
:103300007C818D8140E00E94A6178D859E850E945C
:10331000E9396E817F81888541E00E9448178D855B
:103320009E850E94E93969857A858B8541E0DF9128
:10333000CF910C9448170F931F93CF93DF93EC0119
:10334000062F18E01DC06B817C818D8140E00E94BA
:10335000A617000F8D859E850E94E9396E817F81B9
:10336000888541E00E9448178D859E850E94E93935
:10337000688179818A8140E00E94A617115049F046
:1033800007FFE1CF69857A858B8541E00E94481768
:10339000E0CF69857A858B8541E00E9448178D854D
:1033A0009E850E94E9396E817F81888541E00E9477
:1033B0004817E985FA8510818B8518238D859E85B0
:1033C0000E94E939688179818A8140E00E94A617CC
:1033D00069857A858B8541E00E944817111105C0E7
:1033E000DF91CF911F910F91089585E20E946B3D6F
:1033F0001F93CF93DF93EC01162F8D859E850E943E
:10340000E93969857A858B8541E00E9448176E818C
:103410007F81888541E00E9448178D859E850E94A6
:10342000E9396B817C818D8140E00E94A6178D85F2
:103430009E850E94E939688179818A8140E00E94F5
:10344000A617612FCE01DF91CF911F910C949B198C
:103450000F931F93CF93DF93EC01F8940E94672F93
:10346000088519852A853B85DC01CB01800F911FDA
:10347000A21FB31F8C839D83AE83BF83CE010E94A6
:10348000063B7894DF91CF911F910F9108959F9201
:10349000AF92BF92CF92DF92EF92FF920F931F9362
:1034A000CF93DF93CDB7DEB729970FB6F894DEBF81
:1034B0000FBECDBF8C01962E9E012F5F3F4F87E040
:1034C000F90111928A95E9F78FEA8887198688EAC7
:1034D0008983F801C388D12C7601F5E1EF0EF11C48
:1034E000E00EF11E47E061E0F801848595850E94B9
:1034F000BF139E01285F3F4F42E061E0F8018485E1
:1035000095850E94BF138985F82FFF73AF2E8074B5
:10351000B82EF801EC0DFD1D8A81858B8B81F7019A
:1035200081838C8182838D8183838E8184838F814B
:103530008583F80183898A5F838B8B3270F5BB208A
:1035400031F0F801808991890196918B808BA110CF
:1035500004C0F8018489882329F1F801828981FF58
:103560000AC0C8010E94B43AF80182898B7F828B1D
:10357000C8010E94281A29960FB6F894DEBF0FBE24
:10358000CDBFDF91CF911F910F91FF90EF90DF9012
:10359000CF90BF90AF909F900895692DC8010E9471
:1035A0005619CDCF1092260181E080934601E3CFDA
:1035B0004F925F926F927F928F929F92AF92BF9243
:1035C000DF92EF92FF920F931F93CF93DF9300D080
:1035D00000D0CDB7DEB77C01FC01D08067E379E194
:1035E0008D2D0E9498298C01F70180859185A285F7
:1035F000B385892B8A2B8B2BB1F1C8010E94B43A79
:10360000F70184819581A681B781F8018483958330
:10361000A683B783F70180859185A285B385F801DC
:1036200080879187A287B38781E0828B118A108A75
:1036300017861686138A148AC8010E94063B0F90CB
:103640000F900F900F90DF91CF911F910F91FF90EE
:10365000EF90DF90BF90AF909F908F907F906F9092
:103660005F904F900895C8010E94B43AF801128A01
:1036700081E0848B6D2DC8010E94471A8EE28B83F6
:103680001C820E94672F2B013C019E012D5F3F4F42
:1036900042E060E0F801848595850E94BF130E9496
:1036A000672F4B015C018FEA89831A829E012F5F8D
:1036B0003F4F42E061E0F801848595850E94BF1389
:1036C0008A818F71F82EF8018389882331F06D2D5E
:1036D000C8010E945619F8018389F80191899F93C6
:1036E00090899F931F92FF921F928F9387858F934C
:1036F00086858F93D501C40184199509A609B70958
:10370000BF93AF939F938F937F926F925F924F92ED
:103710001F92DF9283ED93E09F938F930E94E1339A
:103720000FB6F894DEBF0FBECDBF89CF9F92AF9288
:10373000BF92CF92DF92EF92FF920F931F93CF939E
:10374000DF93EC01C62E942ED52EB22E78016C8517
:10375000862F8160A82EC11085C06A2DCE010E94DF
:10376000F8198FEF8B0DBB2009F46EC06701C80EEE
:10377000D11C69857A858B8541E00E94481708E055
:1037800010E08D859E850E94E9396E817F81888554
:1037900041E00E9448178D859E850E94E939110FEE
:1037A000E985FA8590818B85892391E009F490E081
:1037B000192B688179818A8140E00E94A617015007
:1037C00001F769857A858B8541E00E944817CE1400
:1037D000DF04F1F06B817C818D8140E00E94A617AF
:1037E0008D859E850E94E9396E817F81888541E0C3
:1037F0000E9448178D859E850E94E93968817981EC
:103800008A8140E00E94A617F70111937F01B1CF92
:1038100069857A858B8541E00E9448178D859E8554
:103820000E94E9396E817F81888541E00E944817B6
:103830008D859E850E94E939688179818A8140E081
:103840000E94A617F6011083CE01DF91CF911F9140
:103850000F91FF90EF90DF90CF90BF90AF909F902F
:103860000C947C19CE010E94F819092D1D2DCA94C3
:10387000D12CEFEFCE1ADE0AC00ED11EF8016191F5
:103880008F01CE010E949B19C016D106B9F765CFF2
:10389000DF92EF92FF920F931F93CF93DF937C0100
:1038A000C62FD42E152FFC0164850E94F8190FEF46
:1038B0000C0FCC2371F0CD2DD12F10E00F5F1F4FD7
:1038C0000C0F1D1F6991C7010E949B19C017D107DA
:1038D000C9F7C701DF91CF911F910F91FF90EF9032
:1038E000DF900C947C198EE10E946B3D0F931F9327
:1038F000CF93DF93FC01A189B2898D919C9111979F
:10390000928B818B16968D919C911797C085D1854E
:10391000228521113FC02FB7F894AC015527598358
:1039200048832FBF209147013091480111963C9365
:103930002E93B0934801A0934701A189B2891097B3
:1039400059F5278530898217930741F0838594853F
:10395000A585B6850097A105B10531F480E0DF911A
:10396000CF911F910F910895448155816681778190
:10397000840F951FA61FB71F84839583A683B783E3
:1039800083E79CE19383828381E0DF91CF911F9154
:103990000F9108958883C6CF12964D915D916D91D8
:1039A0007C911597278530898217930741F083858D
:1039B0009485A585B6850097A105B10551F444838A
:1039C00055836683778381E0DF91CF911F910F91BB
:1039D00008950481158126813781800F911FA21FD0
:1039E000B31F2B2F84179507A607270B27FFE7CFB9
:1039F0008DE10E946B3DEF92FF920F931F93CF9347
:103A0000DF937C0165E77DE1DC018C910E949829C0
:103A10008C010E94142AEC01F70184819581A68112
:103A2000B7818A839B83AC83BD83808591859F8387
:103A30008E83F89419821882D80151968D919C91A9
:103A40005297892BB9F15396ED91FC915497D183FC
:103A5000C0835496DC93CE93539780E090E07894A3
:103A6000892B39F4DF91CF911F910F91FF90EF9047
:103A70000895C8010E94B43AD80112968D919C9184
:103A8000139783579C41F1F08A819B81AC81BD8162
:103A900026E73CE1F8013383228384839583A68360
:103AA000B783C801DF91CF911F910F91FF90EF90E5
:103AB0000C94063BF801D48BC38BD28BC18B81E075
:103AC00090E0CDCF8A819B81AC81BD81F80144819A
:103AD000558166817781272F481759076A072B0B75
:103AE00027FFD6CF8DE10E946B3DCF92DF92EF9200
:103AF000CF93DF93EC01488559856A857B852C85BA
:103B00008C810E94352C6B01E82E45E150E065E781
:103B10007DE188810E946929FC01C086D186E28608
:103B200088899989908B87878C899D89AE89BF897F
:103B300083879487A587B68786E79CE193838283F2
:103B400068E070E0CF014196DF91CF91EF90DF9078
:103B5000CF900C94FA290F931F93CF93DF938C018E
:103B60006AE37EE1FC0180810E949829EC010E94B9
:103B7000B43A909100018A8D981303C08FEF80931F
:103B80000001F80184819581A681B781888B998B8A
:103B9000AA8BBB8B8C839D83AE83BF8380859185ED
:103BA000A285B3858C879D87AE87BF8784858E8FDE
:103BB00091E0980F9D8F4089518962897389488768
:103BC00059876A877B87248935893F8B2E8B208D87
:103BD000318D398F288F948D9C8F811105C0DF9195
:103BE000CF911F910F910895CE01DF91CF911F9139
:103BF0000F910C94063BEF92FF920F931F93CF937C
:103C0000DF938C0168E27EE1FC0180810E949829AB
:103C1000EC01F8948E8980FF13C07E01F8E0EF0E6E
:103C2000F11CC7010E94B43AF80184819581A681F4
:103C3000B7818C879D87AE87BF87C7010E94063BEF
:103C40007894DF91CF911F910F91FF90EF9008959D
:103C500049E150E068E27EE1FC0180810E9469292F
:103C60002EE137E2FC013383228329E337E23387F5
:103C700022870895CF93DF93DC0114969C911497CB
:103C8000C0E0D0E0FE01E45AFC4FE4919E1739F009
:103C90002196C830D105B1F78DE20E946B3D87E9CE
:103CA00080937A0030917E0081E090E00C2E01C07C
:103CB000880F0A94EAF7832B80937E004FE150E04F
:103CC0006AE37EE18C910E946929FC0180E79EE114
:103CD00093838283C28F81E0858FDF91CF91089596
:103CE000FC0180917A0086FF0EC084819581A681B7
:103CF000B7818853984FAF4FBF4F84839583A68376
:103D0000B78381E00895828D90910001981761F04A
:103D10009F3F59F7809300018770806480937C00F7
:103D200087ED80937A00E1CF8FEF8093000120919F
:103D3000780030917900858D968D891780F54489BA
:103D40005589240F351F8F5F358B248B858F8917FD
:103D500060F18689978928173907C8F1808D918D80
:103D600082179307A0F1138E1092260181E08093B1
:103D70004A01408951896289738980859185A2852C
:103D8000B385840F951FA61FB71F808B918BA28BC5
:103D9000B38B84839583A683B78381E0089581E004
:103DA000358B248B858F8917A0F6448155816681D8
:103DB000778184859585A685B785840F951FA61F75
:103DC000B71F84839583A683B78381E00895838D8D
:103DD0008F5F838F948D891738F28091270181112D
:103DE000C2CF8AE10E946B3D1F93CF93DF93EC011A
:103DF000162FAC89BD891097B9F01296ED91FC9100
:103E000013978D919C9111979D8B8C8B11961C9281
:103E10001E9213961C921E921297612FCD01099546
:103E2000AC89BD89109749F71092260181E08093F3
:103E30004901DF91CF911F910895EF92FF921F9357
:103E4000CF93DF937C01FC01108168E27EE1812F3A
:103E50000E949829EC01F8948E8980FF09C0F7012F
:103E600064816F8B8A7F84608E8BCE010E94F41EEA
:103E7000CE010E94B43ACE0108960E94B43A1E8A3E
:103E80008F8978941F921F921F921F921F928F9377
:103E90001F921F921F921F938BEF93E09F938F931C
:103EA0000E94E1338DB79EB70C960FB6F8949EBF73
:103EB0000FBE8DBFDF91CF911F91FF90EF900895BE
:103EC000CF93DF93EC010E94B43ACE0108960E9492
:103ED000B43AEC89FD89309751F090818181138249
:103EE000128211821082E92FF82F3097B1F71D8AC4
:103EF0001C8A188E1F8A1E8ADF91CF9108950F9316
:103F00001F93CF93DF938C0168E27EE1FC018081F7
:103F10000E949829EC01F8940E94601F81E08E8B2A
:103F2000F80184819581A681B7818C839D83AE83BE
:103F3000BF8380859185A285B385888B998BAA8B59
:103F4000BB8B892B8A2B8B2B19F0CE010E94063B51
:103F5000F8018485888F7894DF91CF911F910F911C
:103F60000895FC01808982FD19C08460808B1092C5
:103F7000260181E080934B014481558166817781E0
:103F800080859185A285B385840F951FA61FB71FD5
:103F900084839583A683B78381E0089584898F5FA6
:103FA000848BE5CFFF920F931F93CF93DF93EC01A8
:103FB000F88483E08F1508F145E450E062ED7FE17D
:103FC00088810E9469298C0181EB9FE1F80193832C
:103FD00082836EEE72E18C810E949829F8019587A8
:103FE0008487FC01858180FF0BC0F801F18ADF9195
:103FF000CF911F910F91FF90089589E20E946B3D30
:1040000088E20E946B3DCF93DF93EC0145969F932E
:104010008F938A891F928F938F858F938E858F932D
:104020001F926F9380EB93E09F938F930E94E133F5
:104030001A8A8E859F8501969F878E878DB79EB73A
:104040000A960FB6F8949EBF0FBE8DBFDF91CF9139
:104050000895FF920F931F93CF93DF938C01FC0180
:10406000F08062ED7FE18F2D0E949829EC010E9483
:10407000B43A188AF80180859185A285B385892B89
:104080008A2B8B2B01F58A89811118C08F858F931C
:104090008E858F931F92FF9285EB93E09F938F9372
:1040A0000E94E1330F900F900F900F900F900F90A0
:1040B000DF91CF911F910F91FF9008956F2DCE0149
:1040C0000E940320E3CFF80184819581A681B78106
:1040D0008C839D83AE83BF8380859185A285B385C4
:1040E00088879987AA87BB871F861E861A8A848538
:1040F0008B8BCE01DF91CF911F910F91FF900C948C
:10410000063BCF93DF93EC016A8D662309F453C01D
:10411000FC0150E031E020E0A38DB48D4C91958DF1
:10412000942309F0532B2F5F330F33962613F4CFCC
:104130002C85922F952729F08D85852780959823AA
:10414000D9F4888D5D8787FD03C0815070F1888F19
:104150004C815D816E817F8188859985AA85BB852B
:10416000840F951FA61FB71F8C839D83AE83BF83CB
:1041700081E0DF91CF910895982F90952923852391
:10418000822B8C879E859830E0F621E0290F2E87C0
:10419000FE01E90FF11D87871092260181E08093CF
:1041A0004C018FEF888F5D87D3CF1092260191E06D
:1041B00090934C01CCCF50E0BBCF0F931F93CF9384
:1041C000DF938C016AE171E2FC0180810E949829F1
:1041D000EC010E94B43AF80184819581A681B781EF
:1041E0008C839D83AE83BF834085518562857385B3
:1041F000488759876A877B8780898D878C871E8649
:104200001F8A8EEF888F8485898F87FD10C0452B8C
:10421000462B472B29F4DF91CF911F910F910895E1
:10422000CE01DF91CF911F910F910C94063B8FE14E
:104230000E946B3DCF93FC01C481C930B8F44C2F70
:1042400050E09A01220F331F420F531F455E5F4F0C
:104250006AE171E2FC0180810E946929FC01C28F40
:1042600021E830E233832283CF91089581E20E94D6
:104270006B3D0F931F93CF93DF938C016AE171E243
:10428000DC018C910E949829FC01D80114969C9124
:10429000828D9817B8F4292F30E0E901CC0FDD1F8B
:1042A0002C0F3D1FEF01C20FD31FF80164858085DD
:1042B0000E945E176B8F7C8F8D8FDF91CF911F9146
:1042C0000F91089580E20E946B3DFC01448155816D
:1042D00066817781208580810C94352CFC0196893C
:1042E0009460968B1092260181E080934D0180E0CE
:1042F00008950F931F93CF93DF938C0148E450E010
:1043000069E771E2FC0180810E946929EC018EE677
:1043100091E29B838A836AE77BE2F80184810E94B1
:1043200098299D878C87DF91CF911F910F910895D8
:104330004F925F926F927F928F929F92AF92BF92B5
:10434000CF92DF92EF92FF920F931F93CF93DF9361
:1043500000D01F92CDB7DEB76C0169E771E2DC01D6
:104360008C910E9498297C010E94672F4B015C016F
:1043700082E78B83D7011C96ED91FC911D978E01EE
:104380000F5F1F4F22E0AE014D5F5F4F61E0808104
:104390000E9473160E94672F2B013C0189818F7147
:1043A0008983F70181898F9380898F932489358947
:1043B000ABEABAEA0E94143E969587959695879542
:1043C0009F938F9387891F928F9387858F9386857D
:1043D0008F93D301C20188199909AA09BB09BF9318
:1043E000AF939F938F93BF92AF929F928F92D6017C
:1043F0008C911F928F938BEA93E09F938F930E94EF
:10440000E1330FB6F894DEBF0FBECDBF0F900F9013
:104410000F90DF91CF911F910F91FF90EF90DF9060
:10442000CF90BF90AF909F908F907F906F905F9054
:104430004F9008957F928F929F92AF92BF92CF92AA
:10444000DF92EF92FF920F931F93CF93DF937C0144
:10445000DC01DC9162ED7FE18D2F0E9498298C01B7
:10446000F701C481B084A184DC0151969C90B2E034
:104470009B1609F44FC00E94672F6B017C012B2D06
:104480003A2D4C2F61E0D8011C968D919C911D977F
:104490000E94BF130E94672F8B019C010C191D09FC
:1044A0002E093F09013213402105310558F54C2FE3
:1044B00050E0E1E09E1659F1AF92BF925F934F93A7
:1044C000FF92EF92DF92CF921F92DF938AEB93E0FD
:1044D0009F938F930E94E1338DB79EB70C960FB6D2
:1044E000F8949EBF0FBE8DBFDF91CF911F910F91AA
:1044F000FF90EF90DF90CF90BF90AF909F908F9004
:104500007F90089540E050E0E1E09E12D5CF6B012E
:104510007C01D2CFDC011C96ED91FC911D9794801B
:104520008280738040E0682D772D892D0E94971737
:104530000E94672F6B017C01B0E1CB0ED11CE11C06
:10454000F11C0E94672F2F2DC616D706E806290BEF
:1045500027FFF7CFF89441E0682D772D892D0E9431
:1045600097170E94672F6B017C0178942B2D3A2DB1
:104570004C2F61E0F801848595850E94BF134C2F74
:1045800050E09ACF0F931F93CF93DF93EC01F894F1
:104590000E94672F088519852A853B85DC01CB01A0
:1045A000800F911FA21FB31F8C839D83AE83BF8397
:1045B000CE010E94063B7894DF91CF911F910F911D
:1045C0000895CF93DF93EC0148969F938F938F8943
:1045D0001F928F938F858F938E858F931F926F93EA
:1045E00086EA93E09F938F930E94E1331F8A8E8522
:1045F0009F8501969F878E878DB79EB70A960FB6C7
:10460000F8949EBF0FBE8DBFDF91CF9108954F925A
:104610005F926F927F928F929F92AF92BF92DF9242
:10462000EF92FF920F931F93CF93DF9300D000D0B0
:10463000CDB7DEB78C01DC01DC9069E771E28D2D2E
:104640000E9498297C01F80180859185A285B38517
:10465000892B8A2B8B2BC9F1C7010E94B43AF80130
:1046600084819581A681B781F70184839583A68390
:10467000B783F80180859185A285B385F70180878E
:104680009187A287B38781E0868B17861686118A69
:10469000108A178A138A128A158A148AC7010E94FF
:1046A000063B0F900F900F900F90DF91CF911F91CD
:1046B0000F91FF90EF90DF90BF90AF909F908F9001
:1046C0007F906F905F904F900895C7010E94B43A19
:1046D000D70156961C9283E289831A820E94672F23
:1046E0004B015C01D7011C96ED91FC911D97AE0129
:1046F0004F5F5F4F62E080810E94FD160E94672F2E
:104700002B013C018AE38C83D7011C96ED91FC912F
:104710001D978E010D5F1F4F21E0AE014C5F5F4F73
:1047200061E080810E9473168B8184FD48C0D701AF
:1047300057968C91882321F06D2DC7010E94E122AC
:10474000B7016E5E7F4FF701848595850E949C2F8F
:10475000D70151962C9151972F9350962C912F93CE
:104760009C01ABEABAEA0E94143E9695879596950D
:1047700087959F938F93F70187891F928F938785E2
:104780008F9386858F93D301C20188199909AA094D
:10479000BB09BF93AF939F938F93BF92AF929F92AA
:1047A0008F921F92DF928BEA93E09F938F930E94E8
:1047B000E1330FB6F894DEBF0FBECDBF72CFF70165
:1047C000808991890196918B808BB1CFCF92DF92B6
:1047D000EF92FF92CF93DF93FC01A085B185828594
:1047E0008C93968581E089278687C82FC170C688FB
:1047F000D788E08CF18C97859F5FD1899D1708F051
:104800005FC0892F869586958695DF01A80FB11D1B
:104810005A962C9130E0892F877002C035952795E4
:104820008A95E2F72170B701A601C217A9F033C03B
:10483000892F869586958695DF01A80FB11D5A961A
:104840002C9130E0892F877002C0359527958A9585
:10485000E2F72170C2131FC04C0D5D1D6E1D7F1D40
:104860009F5F9D1728F38BED96E29383828384816B
:104870009581A681B781480F591F6A1F7B1F44830A
:1048800055836683778381E0DF91CF91FF90EF902E
:10489000DF90CF900895978784819581A681B78115
:1048A000480F591F6A1F7B1F448355836683778394
:1048B00081E0DF91CF91FF90EF90DF90CF9008954E
:1048C000B701A601D0CF6F927F928F92CF92DF92E5
:1048D000EF92FF92CF93DF93EC0160E08C810E9416
:1048E000192E3B01882EC884D984EA84FB84D7FC26
:1048F00024C0A601415F5F4F63E674E288810E9495
:104900006929FC01608271828282D686C5868C8587
:104910009D859483838388899989AA89BB898187A6
:104920009287A387B487DF91CF91FF90EF90DF90BC
:10493000CF908F907F906F90089584E20E946B3D9E
:10494000CF92DF92EF92FF920F931F93CF93DF935B
:10495000EC01E885F9858A8580830E94672F3E8572
:1049600021E023272E872F852F5F2F87213009F401
:104970005CC02530E0F40C811D812E813F814A8985
:104980005B896C897D89DB01CA01800F911FA21FA1
:10499000B31F8C839D83AE83BF8381E0DF91CF9172
:1049A0001F910F91FF90EF90DF90CF900895CC80F2
:1049B000DD80EE80FF80AB01BC014C195D096E0902
:1049C0007F098E899F89A88DB98D481B590B6A0B69
:1049D0007B0BDB01CA010296A11DB11DB7FD34C0DE
:1049E000B595A79597958795B595A795979587952B
:1049F0000A891B892C893D89800F911FA21FB31F33
:104A00008E8B9F8BA88FB98F26EE33E23B832A8350
:104A10004C0D5D1D6E1D7F1D840F951FA61FB71FBA
:104A20008C839D83AE83BF83B8CF0C811D812E8183
:104A30003F81AB01BC01401B510B620B730B4E8BD2
:104A40005F8B688F798F9BCFDB01CA010596A11D13
:104A5000B11DC6CFEF92FF920F931F93CF93DF93B9
:104A60007C016BEC75E2FC0180810E949829EC01CD
:104A70001E8511FF07C0DF91CF911F910F91FF900D
:104A8000EF900895F701048160857185F4840B30FF
:104A900008F045C0FAE0FF1508F441C0402F50E08F
:104AA0004A960E94853E1F86117312601E87802FD2
:104AB000880F880F880F898BFF0CFF0CFF0CF88A7A
:104AC000002349F08A8D8F738A3229F480EA94E2B8
:104AD0009B838A830CC08A899B89AC89BD898E8B14
:104AE0009F8BA88FB98F86EE93E29B838A83F8947D
:104AF0000E94672FDC01CB018058934FAF4FBF4F0F
:104B00008C839D83AE83BF83CE010E94063B789445
:104B1000DF91CF911F910F91FF90EF90089582E266
:104B20000E946B3D0F931F93CF93DF938C016AE13B
:104B300071E2DC018C910E949829EC01D801149655
:104B4000EC918F898E0F8F8BF8948E85E817D0F4B7
:104B50008E1BF0E03F96EC0FFD1FDE011F962FEF3E
:104B6000280F30E0205F3F4F2C0F3D1F91919D9308
:104B7000A217B307D9F78E877894DF91CF911F9151
:104B80000F9108951E868EEF888F7894DF91CF91D4
:104B90001F910F9108957F928F929F92AF92BF9233
:104BA000CF92DF92EF92FF920F931F93CF93DF93F9
:104BB000EC0144E250E06BEC75E288810E946929C7
:104BC0008C0178848C809D80AE80BF80CC84DD8415
:104BD000EE84FF8461E0711001C060E0882D0E94C6
:104BE0005E17F80163877487858761E08C2D0E94CA
:104BF000192EF80160877187828788899989AA8927
:104C0000BB89828B938BA48BB58B711018C091E0FC
:104C10008C149D04AE04BF04C1F080E0892BF80120
:104C20008687DF91CF911F910F91FF90EF90DF90DA
:104C3000CF90BF90AF909F908F907F90089591E11B
:104C40008C149D04AE04BF0441F780E2E7CFCF93FC
:104C5000DF93EC018E8585FD0DC0688579858A8599
:104C600041E00E9497178E85807381608E87DF9167
:104C7000CF910895688579858A8541E00E94A617BD
:104C80008E85807381608E87DF91CF910895CF9359
:104C9000DF93FC01A385B4855C918785982F97707D
:104CA00021E030E001C0220F9A95EAF7982F9695FF
:104CB00096959695DF01A90FB11D5A969C915A972A
:104CC00045854523E1F0292B5A962C938F5F9089D7
:104CD0008917E8F4878744815581668177818689C1
:104CE0009789A08DB18D840F951FA61FB71F848350
:104CF0009583A683B78381E0DF91CF9108952095B6
:104D000029235A962C938F5F9089891718F3EF0106
:104D1000CF010E9427268E8588608E8710922601FB
:104D200081E080934E0180E0DF91CF910895CF9391
:104D3000DF93FC01A385B4859C9185858923E9F0E7
:104D4000868584608687878591E0980F9787803471
:104D500008F5448155816681778186899789A08D80
:104D6000B18D840F951FA61FB71F84839583A683DB
:104D7000B78381E0DF91CF910895868582FFE3CFED
:104D8000178687E496E293838283CF01DF91CF91E8
:104D90000C944726EF01108ACF010E9427268E85AA
:104DA00088608E871092260181E080934E0180E01A
:104DB000DF91CF9108951F93CF93DF93EC01188972
:104DC000112369F14E8545FD23C01F8687E996E2D0
:104DD0009B838A838E899F89A88DB98D880F991F9F
:104DE000AA1FBB1F880F991FAA1FBB1F4C815D8183
:104DF0006E817F81840F951FA61FB71F8C839D83B3
:104E0000AE83BF8311E0812FDF91CF911F91089571
:104E100040716B857C858D850E944817D6CF0E9496
:104E200027268E8588608E871092260181E08093E8
:104E30004E01812FDF91CF911F910895FC0186894A
:104E40008460868B1092260181E080934901448121
:104E500055816681778180899189A289B389840F80
:104E6000951FA61FB71F84839583A683B78381E010
:104E70000895FC013897968990FF08C0608D678B74
:104E80009A7F9460968BCF010E94F41E80E0089573
:104E9000FC01A085B1859C9182858923D1F0818D0B
:104EA00080958170C9F4838D815031F1838F448165
:104EB00055816681778187859089A189B289840F20
:104EC000951FA61FB71F84839583A683B78381E0B0
:104ED0000895818D817039F383E997E2938382830A
:104EE00083899489A589B68984839583A683B783AA
:104EF000828D838F81E00895A789B08D56969C910D
:104F00005697892F817090FFE3CF648D57966C93ED
:104F100057979A7F946056969C935697CD010E941E
:104F2000F41E80E008950F931F93FC01A085B185C6
:104F30009C9104811581268137814385548565853F
:104F40007685400F511F621F731F8285892361F090
:104F5000818D8095817059F0448355836683778372
:104F600081E01F910F910895818D8170A9F7438B86
:104F7000548B658B768B88E497E293838283CF0191
:104F80001F910F910C944827CF93FC01C08166E3D9
:104F900078E28C2F0E949829FC01F894818D338946
:104FA0004489558966897894A085B1852C9192852C
:104FB000922321E009F420E01F922F936F935F93D7
:104FC0004F933F93869581701F928F931F92CF933B
:104FD00080E094E09F938F930E94E1338DB79EB75A
:104FE0000C960FB6F8949EBF0FBE8DBFCF9108955B
:104FF000CF93FC01C0816BE870E18C2F0E9498294F
:10500000FC01F89480A191A1A2A1B3A124A5468599
:1050100057856089718924FD04C0769567955795F9
:105020004795841B950BA60BB70BB7FF07C0B09530
:10503000A095909581959F4FAF4FBF4F7894B054F6
:10504000BF93AF939F938F931F92CF9385E094E08C
:105050009F938F930E94E1338DB79EB708960FB64A
:10506000F8949EBF0FBE8DBFCF9108950F931F93ED
:10507000CF93DF93EC014DE150E066E378E2888165
:105080000E9469298C0168858C810E945E17F80155
:10509000608771878287DF91CF911F910F9108956B
:1050A0000F931F93CF93DF938C0166E378E2FC01AB
:1050B00080810E949829EC010E94B43AF801848111
:1050C0009581A681B7818C839D83AE83BF838085C4
:1050D0009185A285B3858F87988BA98BBA8B8485A0
:1050E0008A8F882361F1F801408951896289738927
:1050F0004B875C876D877E8723E937E23B832A8372
:105100008B8F84899589A689B789892B8A2B8B2BCC
:10511000A1F482E0898F68E27EE1F801808D0E942F
:105120009829988F8F8BF801848D8C8FCE01DF9119
:10513000CF911F910F910C94063B83E0EBCF188E1B
:105140001F8A198EDF91CF911F910F9108950F93B0
:105150001F93CF93DF938C01EC01A897CE010E949F
:10516000B43A1C821D821E821F821A8A1B8A1C8AE4
:105170001D8A88A199A1AAA1BBA12CA54E855F85F6
:105180006889798924FD04C0769567955795479578
:10519000841B950BA60BB70BB7FD40C0B095A0952F
:1051A000909581959F4FAF4FBF4F88A399A3AAA316
:1051B000BBA31E861F86188A198A247128602CA713
:1051C0006D8D7E8D8F8D40E00E9497174CA54470A9
:1051D0006A8D7B8D8C8D0E949717D8011497ED9165
:1051E000FC9111973097A9F04091470190914801A7
:1051F00001C0F9012081318140839183F0934801FE
:10520000E09347014E2F9F2F2115310591F71D92F5
:105210001C92DF91CF911F910F910895B095A095A9
:10522000909581959F4FAF4FBF4FB8CF0F931F936E
:10523000CF93DF938C016BE870E1FC0180810E94C9
:105240009829EC0168E27EE1F80184810E949829A6
:10525000BE01685D7F4F4FB7F8942AA53BA5232B6D
:1052600089F427EA38E23BA72AA7FC01248935897B
:1052700039A728A7758B648B4FBFDF91CF911F9102
:105280000F91089589E10E946B3DCF93DF93EC016C
:10529000988140913701A0913801B09139010BC03C
:1052A000FD0184E0989FE00DF11D112420813181E2
:1052B0002617370741F09F5F941790F380E090E046
:1052C000DF91CF910895988382819381DF91CF916F
:1052D0000895CF93DF9390913701891730F5C82F48
:1052E000D0E0CC0FDD1FCC0FDD1FE0913801F09135
:1052F0003901EC0FFD1F80819181892BB1F48091E0
:105300003F0190914001892B81F471836083CA0130
:105310000E94BE332091380130913901C20FD31F52
:105320009B838A83DF91CF9108958BE00E946B3D30
:1053300090913701891788F4E0913801F091390193
:1053400094E0899FE00DF11D1124808191818617E1
:10535000970719F48281938108958CE00E946B3D38
:10536000CF92DF92EF92FF92CF93DF93C0913F01F4
:10537000D09140012097B9F121976E01E12CF12CD9
:10538000A0913E01B0E02097D9F020E030E040E06D
:1053900050E0BA0180913C0190913D01FC01E20F87
:1053A000F31F4F5F5F4F6F4F7F4F2A0F3B1F820FDF
:1053B000931F918380834C155D056E057F0550F327
:1053C00080913C0190913D01CA9FF001CB9FF00D6F
:1053D000DA9FF00D1124E80FF91F118210829093CB
:1053E000480180934701DF91CF91FF90EF90DF90CC
:1053F000CF900895FC0113821282118210826F3FB8
:10540000710509F07CF480913F0190914001892B56
:1054100049F480913E0190E08617970714F4609359
:105420003E0108950E94EE2D2FB7F8948091470118
:1054300090914801009749F0FC01408151815093BF
:105440004801409347012FBF08958FE00E946B3DB4
:1054500080912701882329F0823011F010922701D2
:10546000089582E00E946B3D88E00E946B3DCF92E0
:10547000DF92EF92FF920F931F930E94672F9F93EB
:105480008F937F936F9301E010E020E030E0C090B5
:105490005301D0905401E0905501F09056016C15E5
:1054A0007D058E059F0518F000E010E098018091C1
:1054B0004F0190915001A0915101B0915201800F84
:1054C000911FA21FB31FBF93AF939F938F938EE142
:1054D00094E09F938F930E94E1338DB79EB70A9615
:1054E0000FB6F8949EBF0FBE8DBF1F910F91FF9016
:1054F000EF90DF90CF9008950E94672F9F938F9336
:105500007F936F9389E194E09F938F930E94E1339F
:105510000F900F900F900F900F900F900895CF93D2
:10552000DF93EC016AE77BE288810E9498296C8115
:1055300048855985FC01238120FD06C0FC0180813E
:10554000DF91CF910C94FD1681819281DF91CF91F3
:105550000C94481C2F923F924F925F926F927F92D1
:105560008F929F92AF92BF92CF92DF92EF92FF9273
:105570000F931F93CF93DF9300D000D000D0CDB70F
:10558000DEB78C012DB73EB73D832C836AE77BE203
:10559000DC018C910E9498299A838983F801F48117
:1055A000FB83D80118968D909C9019971C964D906E
:1055B0005D906D907C901F9740FC99C076946794A5
:1055C00057944794F801E088F188C42CD12CFB81D2
:1055D0000F2F10E0C8018C0D9D1D2DB73EB7281B65
:1055E000390B0FB6F8943EBF0FBE2DBF8DB79EB7D7
:1055F00001965C01A981BA8113963C90A801B4017F
:105600000E94853EB32DB170BE8330FE53C015019C
:10561000200E311E8101242DA4016B81E981FA81C4
:10562000818192810E94961BC114D10409F453C058
:10563000A6014E0D5F1DF10120E030E0D7018D91F4
:105640007D018095908189238083DA019D91AD0150
:10565000892B81932F5F3F4F2C153D057CF3BE8135
:10566000B11139C06B81640DA501E981FA81808196
:105670000E94FD162C813D810FB6F8943EBF0FBEEF
:105680002DBF26960FB6F894DEBF0FBECDBFDF91BB
:10569000CF911F910F91FF90EF90DF90CF90BF902F
:1056A000AF909F908F907F906F905F904F903F90C2
:1056B0002F9008951501200E311E8101242DA40183
:1056C0006B81E981FA8180810E947316C114D10433
:1056D00009F0AECFC7CF6B81640DA501A981BA8156
:1056E00011968D919C9112970E94481CC3CF8CE11A
:1056F0000E946B3D44E050E06AE77BE2FC01808160
:105700000C946929AF92BF92CF92DF92EF92FF92F1
:105710000F931F93CF93DF93CDB7DEB77C01ADB668
:10572000BEB6FC01C0806AE77BE28C2D0E949829FE
:10573000F701648140855185D4842DB73EB72D197A
:1057400031090FB6F8943EBF0FBE2DBFEDB7FEB7BF
:1057500031967F01FC012381870120FD2AC02D2D78
:10576000FC0180810E947316FF92EF921F92DF92DC
:105770001F92CF928CEE93E09F938F930E94E13320
:105780002DB73EB7285F3F4F0FB6F8943EBF0FBE10
:105790002DBF0FB6F894BEBE0FBEADBEDF91CF9148
:1057A0001F910F91FF90EF90DF90CF90BF90AF903F
:1057B00008952D2D818192810E94961BD5CF8F92C5
:1057C0009F92AF92BF92FF920F931F93CF93DF935D
:1057D0008C01FC0184858F77F82E6AE77BE280815B
:1057E0000E949829EC01F80184819581A681B781F6
:1057F000892B8A2B8B2BB1F58091BC0082FF10C0C6
:105800008F2D880F88838B8182608B83DF91CF916E
:105810001F910F91FF90BF90AF909F908F90089530
:10582000F80180849184A284B38461E084E10E94C1
:10583000192E61E085E10E94192E1092B900F0E85E
:105840008F16FAE19F06F6E0AF06B10438F488E45B
:105850008093B80084E08093BC00D2CF8CE080932A
:10586000B800F8CF81E30E946B3DCF92DF92EF92B8
:10587000FF921F93CF93DF936A017B0164E474E08E
:10588000FB019491981749F0675F7F4FF4E06A3706
:105890007F07B1F784E30E946B3DFB01389694913A
:1058A00091FF19C030EAC3163FE5D306E104F104C5
:1058B00008F082C0A8EDCA16A7E2DA06E104F104F6
:1058C00008F08BC0B7EFCB16B8E0DB06E104F104BB
:1058D00088F012E010C0F8EBCF16F7E4DF06E10421
:1058E000F10408F058C037EFC31638E0D306E104DE
:1058F000F10478F711E0FB013396A591B491FB0117
:105900003596C591D491FB0137963491E82FE695F1
:10591000E695E695F0E0EE0FFF1FE45CFB4F459146
:1059200054918770E1E0F0E07F0101C0EE0C8A95B0
:10593000EAF76F5F7F4FFB01C590D490892F81708C
:10594000A038B10509F45CC0EFB7F894988197705E
:1059500011F0191352C0188381114AC09FB7F894EF
:10596000622F70E0E601798368839FBF9C9131606C
:10597000392B3C93DA0111969C911197E92A1196E3
:10598000EC92EFBFB601DF91CF911F91FF90EF90A6
:10599000DF90CF900895A0ECCA16AEE3DA06A1E03E
:1059A000EA06F104D0F0C114BBEFDB06B4E0EB066D
:1059B000F10488F414E09FCFC0E8CC16CEE7DC06F3
:1059C000C1E0EC06F10458F4D0E4CD16DFEBDD06BF
:1059D000E104F10478F315E08ECF13E08CCFC1140D
:1059E000EBEFDE06E4E0EE06F10428F416E083CFE8
:1059F000E6012883BBCF17E07ECF82E30E946B3D98
:105A000083E30E946B3D0F931F93FC01A489B5892A
:105A100086898C9393A181E0892783A34481558152
:105A20006681778180FF12C00085118522853385CC
:105A3000400F511F621F731F82FD12C044835583A4
:105A40006683778381E01F910F9108950485158502
:105A500026853785400F511F621F731F82FFEECFCF
:105A60000089118922893389872F401751076207DE
:105A7000830B87FDE3CF84E298E193838283B901AE
:105A8000A801448355836683778381E01F910F913A
:105A900008950895FC018081A481B58140855185D8
:105AA000628573859FB7F894813061F0823019F078
:105AB0004C939FBF08954D935D936D937C93139783
:105AC0009FBF089511965C934E939FBF0895FC016C
:105AD00085818F9384818F9380811F928F938FE034
